:020000040800F2
:1000000070070020250500082D0500082F050008B1
:100010003105000833050008350500080000000020
:1000200000000000000000000000000009020008BD
:100030003905000800000000AD0200080D030008AB
:100040003F0500083F0500083F0500083F05000880
:100050003F0500083F050008510500083F0500085E
:100060003F0500083F0500083F0500083F05000860
:100070003F0500083F0500083F0500083F05000850
:100080003F0500083F0500083F0500083F05000840
:100090003F0500083F0500083F0500083F05000830
:1000A0003F0500083F0500083F0500083F05000820
:1000B0003F050008650500083F0500083F050008EA
:1000C0003F0500083F0500083F0500083F05000800
:1000D0003F0500083F0500083F0500083F050008F0
:1000E0003F0500083F0500083F0500083F050008E0
:1000F0003F0500083F0500083F0500083F050008D0
:100100003F0500083F0500083F0500083F050008BF
:100110003F0500083F0500083F0500083F050008AF
:10012000891000083F0500083F0500083F0500084A
:100130003F0500083F0500083F0500083F0500088F
:100140003F0500083F0500083F0500083F0500087F
:100150003F0500083F0500083F0500083F0500086F
:100160003F0500083F0500083F0500083F0500085F
:100170003F0500083F0500083F0500083F0500084F
:100180003F0500083F050008DFF814D004F04CF9E3
:100190000021024805F09AFAFEE7000034680008E2
:1001A0007007002080F309887047684680F309884B
:1001B00004480078C00714BF0220032080F314888D
:1001C00070470000FC670008DFF818C0EFF30583F4
:1001D0001B0618BF6047EFF31483DB0708BF6047B7
:1001E00000DF7047A5580008DFF818C0EFF305835B
:1001F0001B0618BF6047EFF31483DB0708BF604797
:1002000000DF7047255B0008EFF30980816911F872
:10021000021C002933D190E80F1010B5E047BDE86B
:100220001040EFF3098C8CE807001D4B93E80600A3
:10023000914208BF704781B11EF0100F06BF2CED30
:10024000108A0120002081F820002CE9F00FC1F86D
:1002500024C00CB405F06EFF0CBC1A60D2F824C0A8
:10026000BCE8F00F92F8200000281ABFBCEC108AFE
:100270006FF0120E6FF0020E8CF30988704710B504
:10028000084A1268914209D8074C54F8214090E876
:100290000F10A047EFF3098C8CE80F0010BD000091
:1002A000800000206C4400086C44000810B505F084
:1002B000DFFDBDE81040174B93E80600914208BFF0
:1002C0007047EFF3098C1EF0100F06BF2CED108A5B
:1002D0000120002081F820002CE9F00FC1F824C093
:1002E0000CB405F027FF0CBC1A60D2F824C0BCE89F
:1002F000F00F92F8200000281ABFBCEC108A6FF0B3
:10030000120E6FF0020E8CF30988704710B505F0DD
:10031000D7FFCEE7800000200CB5002001900090B0
:100320007548006840F480307349086000BF724827
:10033000006800F4003000900198401C0190009883
:1003400018B90198B0F5A06FF1D16B48006810F4AE
:10035000003F02D00120009001E0002000900098B2
:10036000012845D164484030006840F0805062491F
:10037000403108606148006840F480405F4908608F
:100380005D48083000685C4908310860084600682C
:1003900040F4004008600846006840F4A05008603F
:1003A0005748091F0860081F006840F08070091F47
:1003B000086000BF5048006810F0007FFAD040F29B
:1003C0000560504908604C480830006820F0030080
:1003D0004949083108600846006840F0020008609A
:1003E00000BF45480830006800F00C000828F8D12C
:1003F0000CBD10B54448006840F4700042490860E4
:100400003D48006840F001003B49086000203A493F
:1004100008310860384800683C490840364908609F
:100420003B48091D0860081F006820F48020091F50
:100430000860002030490C310860FFF76DFF4FF075
:10044000006031498039086010BD70B5002000227D
:10045000022300240221284D08352D6805F00C00E8
:1004600020B1042806D0082834D107E0294D2A4EAF
:10047000356033E0294D284E35602FE01E4D2D1D8F
:100480002D68C5F380541C4D2D1D2D6805F03F01CE
:1004900054B1224DB5FBF1F5174E361D3668C6F343
:1004A000881605FB06F209E01A4DB5FBF1F5124E70
:1004B000361D3668C6F3881605FB06F20E4D2D1D57
:1004C0002D68C5F301456D1C6B00B2FBF3F5124EB0
:1004D000356003E00F4D104E356000BF00BF064D84
:1004E00008352D68C5F303150D4E705D0A4D2D6856
:1004F000C540094E356070BD0038024000700040B4
:1005000008544007003C024088ED00E0FFFFF6FE83
:10051000103000240024F4000000002000127A00B3
:10052000040000200648804706480047FEE7FEE733
:10053000FEE7FEE7FEE7FEE7FEE7FEE7FEE7FEE793
:10054000F30300088901000800BFFEE700BFFEE7D3
:1005500010B5012001F012FF01214A48006805F0A2
:100560003BF910BD10B50121474803F0CDFA4748CB
:100570000068012808DC052044490860012144483E
:10058000006805F029F904E040480068401E3F4932
:10059000086001213F48006805F01EF910BD8CB0CD
:1005A00005F058F9374908603B49D1E90023D1E902
:1005B0000201CDE90823CDE90A01002108A805F0D0
:1005C00031F933490860344B1033D3E90012D3E9D1
:1005D0000203CDE90603CDE90412002104A805F0C9
:1005E00021F92C49086000F06FFA00F0D2F900F010
:1005F00093FC00F071FD4FF0FF312848006805F0D2
:10060000DFF84FF0FF312648006805F0D9F80024E4
:100610002248006805F0BCF8642001F087F92FE05B
:100620004FF0FF31012005F0F1F801AB07C314B121
:10063000012C24D111E04FF0FF311848006805F07B
:10064000BFF84FF4FA7005F035F800F02BF81448B5
:10065000006805F09DF8012411E04FF0FF311048CB
:10066000006805F0ADF84FF4FA7005F023F800F0DB
:1006700019F80A48006805F08BF8002400BF00BF95
:10068000CEE70000280000200004004024000020E5
:100690004800002054000020446800084400002066
:1006A0006800002008B502223921684600F04DFBA1
:1006B00008BD1FB50720009001222221684600F0E6
:1006C0007EFA0420009001223C21684600F077FA6F
:1006D0000120009001223D21684600F070FA0020C0
:1006E000009001223E21684600F069FA012188034A
:1006F00002F05AF90021042002F058FC0120029077
:1007000000208DF80C0008208DF80D0001208DF8D8
:100710000E0002A801F0D0FD06208DF80400002094
:100720008DF8050001208DF806008DF8070001A85E
:1007300001F03DF9FFF7B6FF1FBD0EB540208DF863
:10074000040000208DF8050007208DF80600002029
:100750008DF807008DF8080001A800F0E0FA4020AD
:100760008DF8000010208DF8010000208DF80200A7
:10077000684600F028FBFFF79CFF0EBD01681E399C
:10078000016041680E39416081682431816040F226
:10079000D53201685143016041685143416081682D
:1007A00051438160121D016891FBF2F10160521CFE
:1007B000416891FBF2F141604FF47C72816891FBDA
:1007C000F2F18160704710B50446204600F063FBEB
:1007D0002046FFF7D3FF10BD10B504460B4600209E
:1007E00008E014F8101049B201EBC101490019608A
:1007F0001B1D401C0328F4DB1846FFF7BFFF10BD8C
:1008000010B52DED0C8B494801F030FA00BF0221E4
:10081000464801F04DFB0028F9D00221434801F081
:1008200050FB4249C86C03F0F5FB41EC100BB0EEF5
:1008300040DAF0EE60DA9FED3E0B53EC102B51ECFA
:100840001D0B03F0F5FA41EC100BB0EE40CAF0EED0
:1008500060CA9FED390B53EC102B51EC1C0B03F0CD
:1008600059FB41EC100BB0EE40BAF0EE60BA9FEDD0
:10087000340B53EC102B51EC1B0B03F0D3FA41EC6F
:10088000100BB0EE40AAF0EE60AA9FED2F0B53ECD8
:10089000102B51EC1A0B03F03DFB41EC100BB0EEAA
:1008A000409AF0EE609A9FED2A0B53EC102B51EC1E
:1008B000190B03F016FA41EC100BB0EE408AF0EE83
:1008C000608A51EC180B03F0EDFB00EE100ABDEC52
:1008D0000C8B10BD00B58BB00121080202F064F84A
:1008E0000020019002900390049001A801F006F905
:1008F000002005908DF818008DF8190007900990D8
:1009000001208DF8280005A9084801F0C8F8012049
:1009100001F02EF90121054801F00CF9072301220D
:100920001021024801F046F90BB000BD0020014043
:10093000000000000070A740000000000000B04070
:100940000000000000C087400000000000000440DC
:1009500000000000000039401A48006900F0010062
:10096000704700B51848006830B9FFF7F5FF18B1B7
:100970000120154908600AE01348006838B1FFF704
:10098000EBFF20B9002010490860012000BD0020C5
:10099000FCE71CB50121084601F0C2FF01200090D0
:1009A00000208DF8040002208DF8050000208DF84D
:1009B000060002208DF807006946024801F06AFD32
:1009C0001CBD0000000002402C00002011490968F5
:1009D00011F0010F0ED00F498039096811F0010F95
:1009E00008D000BF4FF0604109680029FAD04FF0ED
:1009F00060421070704770B504460D462046FFF700
:100A0000E5FF70BD10B504462046FFF7DFFF10BDBF
:100A100000BFFEE7800E00E030B5012806D1374C5C
:100A2000248844F48054354D2C8007E0334CA41CBA
:100A3000248844F48054314DAD1C2C80012906D10A
:100A40002E4C248844F400542C4D2C8007E02B4C71
:100A5000A41C248844F40054284DAD1C2C80012A89
:100A600006D1264C248844F48044244D2C8007E091
:100A7000224CA41C248844F48044204DAD1C2C80BE
:100A8000012B06D11D4C248844F400441B4D2C80BE
:100A900007E01A4CA41C248844F40044174DAD1CF4
:100AA0002C8030BD30B50446E378A2786178207898
:100AB000FFF7B2FF30BD10B504462346224621465B
:100AC0002046FFF7A9FF10BD1CB50121082001F049
:100AD00027FF4FF47040009001208DF804000220A1
:100AE0008DF8050000208DF806008DF80700694696
:100AF0000248183801F0CEFC1CBD0000180C024062
:100B0000F0EE400A90ED331A31EE201AD0F8C810FA
:100B100000EB8101D1ED001A31EE611AB0EE410A0D
:100B200080ED330AD0F8C81000EB8101C1ED000A56
:100B3000D0F8C810491C322291FBF2F302FB1311CA
:100B4000C0F8C8109FED031AC0EE011AB0EE610A9A
:100B5000704700000000484200BFFEE710B50446A1
:100B60004FF48050E849086007E0E7490868411EF3
:100B7000E54A116008B9FFF7EFFF0221E34802F0F0
:100B8000CCF90028F1D02146E04802F08FF94FF46B
:100B90008050DD49086007E0DB490868411EDA4AF9
:100BA000116008B9FFF7D8FF0121D84802F0B5F964
:100BB0000028F1D0D54802F076F9C0B210BD70B56A
:100BC00005460E461446012C01DD46F0400608217C
:100BD000CF4801F0DDFC3046FFF7C0FF05E0287884
:100BE000FFF7BCFF601E84B26D1C012CF7DA0821F0
:100BF000C74801F0CBFC70BD00B587B001210803E8
:100C000001F0D2FE0121084601F08AFE01211020E8
:100C100001F086FE0121102001F082FE012110204A
:100C200001F07EFE05221146BA4801F0BEFC052205
:100C30000621B84801F0B9FC05220721B54801F0AA
:100C4000B4FC02208DF8180000208DF81A00022054
:100C50008DF81B008DF819002020059005A9AD48DE
:100C600001F018FC8020059005A9AA4801F012FCAB
:100C70004020059005A9A74801F00CFCA34801F00D
:100C80008DFF0020ADF80000ADF80400ADF80600BF
:100C9000ADF808004FF40070ADF80A000820ADF878
:100CA0000C000020ADF80E000720ADF810004FF446
:100CB0008270ADF802006946944801F095FF012169
:100CC000924802F072F80820059001208DF8180073
:100CD00000208DF81A0002208DF8190005A98C4813
:100CE00001F0D8FB08218A4801F050FC0120059052
:100CF00000208DF818008DF81A0002208DF81900D8
:100D000000208DF81B0005A9814801F0C3FB0220DB
:100D1000059005A97E4801F0BDFB07B000BD38B5C0
:100D2000044600200090FFF767FF607821780843B1
:100D3000E178084321790843A17808430090012213
:100D400020216846FFF73BFF38BD70B506460C46CC
:100D50001546012D02DD44F0C00401E044F080049A
:100D600008216B4801F014FC2046FFF7F7FE06E06F
:100D70000020FFF7F3FE3070681E85B2761C002D50
:100D8000F6DC0821624801F001FC70BD38B504466C
:100D900000200090012221216846FFF7D6FF9DF830
:100DA000000000F0D0000090207861780843A1781E
:100DB00008439DF800100843009001222121684655
:100DC000FFF7FDFE38BD38B5044600200090012233
:100DD00038216846FFF7B9FF207861780843A17889
:100DE00008430090012238216846FFF7E8FE38BD2D
:100DF00038B50446012220216846FFF7A6FF9DF87A
:100E0000000000F0BF0000909DF80000204300901B
:100E1000012220216846FFF7D2FE38BD38B50446CE
:100E2000012220216846FFF790FF9DF8000000F0A6
:100E30007F0000909DF800002043009001222021B7
:100E40006846FFF7BCFE38BD38B5044601222021B4
:100E50006846FFF77AFF9DF8000000F0DF00009081
:100E60009DF8000020430090012220216846FFF7F2
:100E7000A6FE38BD08B5012221216846FFF765FFAF
:100E80009DF8000040F040000090012221216846BA
:100E9000FFF795FE08BD3EB505460024012220213E
:100EA0006846FFF752FF0622292101A8FFF74DFFF0
:100EB0009DF8000010F0200002D0202820D10FE083
:100EC00000240AE001A911F8140040B200EBC000B0
:100ED000400028602D1D601CC4B2032CF2DB10E022
:100EE00000240AE001A911F8140040B200EBC00090
:100EF000C00028602D1D601CC4B2032CF2DB00E092
:100F000000BF00BF3EBD000038000020003001409F
:100F1000001002400000024010B5FFF7DBFC012189
:100F2000554804F029FC5549086010BD10B52DED59
:100F3000068BF0EE408AB0EE000A38EEC00A10EEE2
:100F4000101A084603F073F841EC100BB0EE40AAFB
:100F5000F0EE60AA9FED4A1B03F016FDB0EE409A3A
:100F6000F0EE609A51EC190B03F09CF808EE100AB1
:100F7000B0EE000AB4EEC08AF1EE10FA06D20023F9
:100F80001A4619460120FFF747FD21E0B1EE000A9D
:100F9000B4EEC08AF1EE10FA06D200231A460121FF
:100FA0000846FFF739FD13E0B1EE080AB4EEC08A37
:100FB000F1EE10FA06D20023012211461046FFF787
:100FC0002BFD05E001231A4619461846FFF724FDBC
:100FD000BDEC068B10BD2DED028BB8B00024D021E6
:100FE00004A802F073FE0125002643E04FF0FF3114
:100FF000012004F00BFC01AB07C316B1012E38D160
:101000001BE0FFF7FDFBF0EE408A04A8FFF778FD38
:10101000B0EE408A00211948006804F0D1FB58B1B5
:10102000B0EE480AFFF782FFFFF79BFC00B10126F4
:101030001248006804F0ACFB1BE000210F48006878
:1010400004F0BEFB50B12846FFF735FDFFF789FCE1
:1010500000B100260948006804F09AFB002C01DD6D
:10106000641E05E014240DB9012000E000200546AF
:1010700000BF00BFBAE70000646800084400002019
:10108000000000000000204010B5FE49FE4801F0BD
:10109000B8F800B30821FD4801F078FAFC49FA4895
:1010A00001F07EF84FF0C051F748483001F078F871
:1010B000F449F54801F0CEF8F3480068F2490860B9
:1010C000F14848300068F049483108600221F14891
:1010D000006804F081FB10BD10B5FFF72EFB00F097
:1010E000A1FB0121EC4804F047FBEC49086010BD6E
:1010F00010B52DED108B88B00446206802F079FF02
:1011000041EC100BB0EE409AF0EE609A606802F08D
:1011100070FF41EC100BB0EE40AAF0EE60AAA068A0
:1011200002F067FF41EC100BB0EE408AF0EE608AEF
:1011300053EC182B51EC180B02F07AFE41EC100B1B
:101140008DED000B53EC1A2B51EC1A0B02F070FED4
:1011500041EC100BB0EE40FAF0EE60FA9DED000BA2
:1011600053EC102B51EC1F0B02F0BBFD41EC100BAC
:101170008DED020B9DED020B03F09AFCB0EE40EA00
:10118000F0EE60EAB0EE4E1AF0EE6E1AB0EE490ADA
:10119000F0EE690A03F008FB8DED040B9FEDC00B28
:1011A00053EC102B9DED040B51EC100B02F040FEA4
:1011B00041EC100BB0EE40DAF0EE60DA9FEDBA0BC6
:1011C00053EC102B51EC1D0B02F0A4FE41EC100B64
:1011D000B0EE40BAF0EE60BA53EC182B51EC180B9D
:1011E00002F026FE41EC100B8DED020B53EC192B97
:1011F00051EC190B02F01CFE41EC100B8DED000BB5
:101200009DED020B53EC102B9DED000B51EC100BE0
:1012100002F067FD41EC100BB0EE40FAF0EE60FA20
:1012200003F046FCB0EE40EAF0EE60EAB0EE4E1A93
:10123000F0EE6E1AB0EE4A0AF0EE6A0A03F0B4FA63
:10124000B0EE40DAF0EE60DA9FED950B53EC102B28
:1012500051EC1D0B02F0ECFD41EC100B8DED040B7D
:101260009FED910B53EC102B9DED040B51EC100BEB
:1012700002F050FE41EC100BB0EE40CAF0EE60CA36
:101280009FED8B0B53EC102B51EC180B02F0E2FE90
:101290005FD29FED870B53EC102B51EC190B02F032
:1012A000EDFE0ED253EC1B2B9FED7D0B51EC100B82
:1012B00002F0B8FD41EC100BB0EE40BAF0EE60BAAF
:1012C00017E051EC1B0B81F0004141EC100BB0EE2C
:1012D00040DAF0EE60DA9FED720B53EC102B51EC1C
:1012E0001D0B02F09FFD41EC100BB0EE40BAF0EE8A
:1012F00060BA9FED6F0B53EC102B51EC1A0B02F000
:10130000BDFE0ED253EC1C2B9FED650B51EC100B68
:1013100002F088FD41EC100BB0EE40CAF0EE60CA5E
:1013200017E051EC1C0B81F0004141EC100BB0EECA
:1013300040DAF0EE60DA9FED5A0B53EC102B51ECD3
:101340001D0B02F06FFD41EC100BB0EE40CAF0EE49
:1013500060CA002006909FED580B53EC102B51EC07
:101360001B0B02F077FE03D201208DF819000BE071
:101370009FED530B53EC102B51EC1B0B02F07EFE38
:1013800002D201208DF81B009FED4B0B53EC102B6C
:1013900051EC1C0B02F05EFE03D201208DF8180008
:1013A0000BE09FED470B53EC102B51EC1C0B02F0A4
:1013B00065FE02D201208DF81A0006A8FFF772FB25
:1013C00008B0BDEC108B10BD38B50446002000906D
:1013D0006068642803DD01208DF8000006E0606885
:1013E00010F1640F02DA01208DF8020020686428F1
:1013F00003DD01208DF8010006E0206810F1640F84
:1014000002DA01208DF803006846FFF74BFB38BD78
:1014100010B52DED108B86B00446206802F0E9FD72
:1014200041EC100BB0EE409AF0EE609A606802F06A
:10143000E0FD41EC100BB0EE40AAF0EE60AAA0680F
:1014400002F0D7FD41EC100BB0EE408AF0EE608A5E
:1014500053EC182B51EC180B02F0EAFC41EC100B8A
:101460008DED020B53EC1A2B51EC1A0B02F0E0FC41
:1014700041EC100B8DED000B9DED020B53EC102B8E
:1014800022E00000208000101064024000100240A2
:101490002000001054000020686800086800002048
:1014A0000000000000806640F1D4C853FB210940D1
:1014B000000000000000000000000000000024C048
:1014C00000000000000024409DED000B51EC100BCB
:1014D00002F007FC41EC100BB0EE40FAF0EE60FABF
:1014E00003F0E6FA8DED040B9DED041BB0EE490A06
:1014F000F0EE690A03F058F9B0EE40EAF0EE60EA67
:101500001FED190B53EC102B51EC1E0B02F090FC4D
:1015100041EC100BB0EE40DAF0EE60DA1FED1E0B7E
:1015200053EC102B51EC1D0B02F0F4FC41EC100BB2
:10153000B0EE40BAF0EE60BA53EC182B51EC180B39
:1015400002F076FC41EC100B8DED020B53EC192BE5
:1015500051EC190B02F06CFC41EC100B8DED000B03
:101560009DED020B53EC102B9DED000B51EC100B7D
:1015700002F0B7FB41EC100BB0EE40FAF0EE60FA6F
:1015800003F096FAB0EE40EAF0EE60EAB0EE4E1AE2
:10159000F0EE6E1AB0EE4A0AF0EE6A0A03F004F9B1
:1015A000B0EE40DAF0EE60DA1FED430B53EC102B97
:1015B00051EC1D0B02F03CFC41EC100B8DED040BCB
:1015C0001FED470B53EC102B9DED040B51EC100B52
:1015D00002F0A0FC41EC100BB0EE40CAF0EE60CA85
:1015E0001FED4D0B53EC102B51EC180B02F032FD9C
:1015F0005FD21FED510B53EC102B51EC190B02F085
:101600003DFD0ED253EC1B2B1FED5B0B51EC100B71
:1016100002F008FC41EC100BB0EE40BAF0EE60BAFC
:1016200017E051EC1B0B81F0004141EC100BB0EEC8
:1016300040DAF0EE60DA1FED660B53EC102B51EC44
:101640001D0B02F0EFFB41EC100BB0EE40BAF0EED8
:1016500060BA1FED690B53EC102B51EC1A0B02F022
:101660000DFD0ED253EC1C2B1FED730B51EC100B28
:1016700002F0D8FB41EC100BB0EE40CAF0EE60CAAD
:1016800017E051EC1C0B81F0004141EC100BB0EE67
:1016900040DAF0EE60DA1FED7E0B53EC102B51ECCC
:1016A0001D0B02F0BFFB41EC100BB0EE40CAF0EE98
:1016B00060CA8DED00CB53EC1B2B4EA002F0D8FE80
:1016C00006B0BDEC108B10BD10B508214F4800F0DE
:1016D0005FFF4F484F4908604F484E494831086006
:1016E00007204C49083908604A4940310860494898
:1016F0000C38006840F0010046490C390860454844
:101700003C30006840F0010042493C31086010BDA7
:101710008AB000256DE04FF0FF31012004F076F82B
:1017200001AB07C3FFF7D0FF4FF0FF31022004F0F9
:101730006DF801AB07C307A93548401CFFF74CF80B
:1017400007A8FFF71BF8002419E004EB840101EB64
:10175000C401324A02EB011007A951F8241000EE2F
:10176000901AF8EEE00AB0EE600AFFF7C9F9BDEE94
:10177000C00A10EE100A04A941F82400641C032CCE
:10178000E3DB15B1012D33D111E0002124480068BD
:1017900004F016F850B104A8FFF7AAFCFFF7E1F82F
:1017A00000B101251E48006803F0F2FF20E0002090
:1017B0000AE007A951F8201004AA52F82020891A3B
:1017C00001AA42F82010401C0328F2DB0021144833
:1017D000006803F0F5FF50B101A8FFF7F5FDFFF732
:1017E000C0F800B100250E48006803F0D1FF00BF2B
:1017F00000BF90E7526F6C6C3A2025662C20506930
:101800007463683A2025660A000000000010024058
:10181000580000201C6402404C0000209C00002066
:101820006800002000B591B000213C4800F040FC69
:1018300000213A48483000F03BFC384800F05CFB9F
:101840003648483000F058FB3549344800F0A8FCD1
:101850004FF0C0513148483000F0A2FC30491839EF
:101860002E4800F09DFC4FF090512C48483000F07D
:1018700097FC2C49294800F093FC4FF082512748EF
:10188000483000F08DFC2749C91C244800F088FC32
:101890004FF088512148483000F082FC0121880532
:1018A00001F03EF84FF0C06002901F480390002006
:1018B00007904FF480600890002009900A900B90E8
:1018C0004FF400300C9000200D900E900F9010906F
:1018D000059002A9114800F0B1FB4020059002A933
:1018E0000E48483000F0AAFB012203210E480C38B4
:1018F00001F0FAFA38208DF8040001208DF8050077
:101900008DF806008DF8070001A800F050F80122BC
:101910001021024800F058FC11B000BD10640240D4
:1019200020000010010080100C30014030B589B05B
:10193000044601A800F05FFF0121022001F023F816
:101940004AF210410398B0FBF1F0B0FBF4F0451EF1
:1019500007950846ADF818000020ADF820001020CB
:10196000ADF81A0006A90E4801F005FC0122114647
:101970000B4802F0A1F80121094801F085FC1D2067
:101980008DF8140000208DF8150001208DF8160048
:101990008DF8170005A800F00AF809B030BD000066
:1019A0000004004033490143334A1160704770B569
:1019B000002100230F22C47824B32F4C246804F4A0
:1019C000E064C4F5E064C4F30721C1F10404E3B2A8
:1019D0000A4144789C40E1B28478144021430C07CA
:1019E000210E264C05786155047804F01F0501246A
:1019F000AC4005786D114FF0E02606EB8505C5F883
:101A0000004109E0047804F01F040125A5401C4CA6
:101A10000678761144F8265070BD1A4A0A400243EF
:101A2000154B1B1F1A60704739B1134A121D1268FB
:101A30000243114B1B1D1A6006E00F4A121D12686B
:101A400082430D4B1B1D1A607047042808D14FF0CC
:101A5000E021096941F004014FF0E022116107E043
:101A60004FF0E021096921F004014FF0E0221161FB
:101A7000704700000000FA050CED00E000E400E013
:101A800080E100E080FFFF1F10B50121080200F097
:101A9000F3FF00214FF4807000F0EEFF10BD30B571
:101AA0000246002000235068F84C20400D790C6855
:101AB00044EA0524204350609068F54C2040D1E969
:101AC00003542C438D682C434D7944EA450420434C
:101AD0009060D06A20F470000C7D641EE4B2234351
:101AE00040EA0350D06230BD0021016001714171B4
:101AF0008160C16001610121017570470021E54AE3
:101B00001168E54A01EA0201D0E9002342EA030232
:101B1000836842EA0302C36842EA030242EA01011F
:101B2000DE4AC2F804137047002101604160816001
:101B3000C160704721B1826842F00102826003E017
:101B4000826822F00102826070470A4600214168E3
:101B5000D34B194011434160704741628262704724
:101B60000A460021416821F01F011143416070477E
:101B700038B1C849096841F40001C84AC2F80413E1
:101B800006E0C449096821F40001C44AC2F80413FC
:101B9000704738B1BF49096841F48001BF4AC2F8B3
:101BA000041306E0BB49096821F48001BB4AC2F86E
:101BB00004137047F0B504460D4600200021092D9E
:101BC00011DDE068A5F10A0606EB4607072606FACE
:101BD00007F18843A5F10A0606EB460603FA06F16B
:101BE0000843E0600CE0206905EB4507072606FA8C
:101BF00007F1884305EB450603FA06F10843206127
:101C0000072A0FDA606B561E06EB86071F2606FAB8
:101C100007F18843561E06EB860605FA06F10843CF
:101C2000606322E00D2A0FDA206BD61F06EB8607D1
:101C30001F2606FA07F18843D61F06EB860605FA2B
:101C400006F10843206310E0E06AA2F10D0606EBFE
:101C500086071F2606FA07F18843A2F10D0606EB58
:101C6000860605FA06F10843E062F0BD816841F09E
:101C7000804181607047014600208A6812F4800F1D
:101C800001D0012000E00020704721B1826842F4B9
:101C90008062826003E0826822F480628260704722
:101CA00021B1826842F00202826003E0826822F081
:101CB00002028260704710B50A4600210023416885
:101CC00021F46041531E41EA4331416010BD21B10E
:101CD000426842F40062426003E0426822F400621B
:101CE000426070470146C86C80B270476D4800681A
:101CF000704721B1826842F48072826003E082689A
:101D000022F480728260704721B1826842F40072CE
:101D1000826003E0826822F400728260704738B10A
:101D20005C49096841F400515C4AC2F8041306E0BA
:101D30005849096821F40051584AC2F80413704701
:101D4000F0B504461546002000220026092911DDC1
:101D5000E068A1F10A0707EB470C072707FA0CF226
:101D60009043A1F10A0707EB470703FA07F2104374
:101D7000E0600CE0206901EB410C072707FA0CF248
:101D8000904301EB410703FA07F210432061A06B77
:101D9000C0F30156EF1C06F1010CA7EB0C0707EB93
:101DA000870C1F2707FA0CF29043EF1C06F1010C79
:101DB000A7EB0C0707EB870701FA07F21043A063B4
:101DC000F0BD10B50A4600210023816B21F44011BB
:101DD000531E41EA0351816310BD08B500230093EF
:101DE0000090009B0B440093009B1A6008BD0A46BC
:101DF0000021816821F470211143816070470A46F7
:101E00000021816821F4401111438160704781688D
:101E100041F4800181607047014600208A6812F415
:101E2000800F01D0012000E00020704721B14268FE
:101E300042F48062426003E0426822F480624260C1
:101E4000704721B1426842F48052426003E0426828
:101E500022F480524260704708B50246002000908C
:101E6000009201F12800009B18440090009800683F
:101E700080B208BD10B50B460021D9B2012404FA86
:101E800001F18AB144680C43446010E0FFFEFFFC9E
:101E9000FDF7FFC004230140E030FCFF00200140BB
:101EA000FFFD3FFF0823014044688C43446010BDA0
:101EB0000246002013680B4201D0012000E0002000
:101EC0007047CA430260704770B502460020002385
:101ED00000240B12556801268E4005EA0604156899
:101EE0001D4202D00CB1012000E0002070BD002294
:101EF0000A12D34303607047016821F001010160B9
:101F00000021016041608160C16001612121416166
:101F1000DA49884204D13D21D84A103A91608CE0D8
:101F2000D6491831884205D14FF47461D34A103A2A
:101F3000916082E0D1493031884205D14FF474116B
:101F4000CE4A103A916078E0CC494831884205D1B8
:101F50004FF07461C94A103A91606EE0C749603130
:101F6000884204D1C649C54A103AD16065E0C349E8
:101F70007831884204D1C349C04A103AD1605CE04C
:101F8000BE499031884204D1BF49BC4A103AD16061
:101F900053E0BA49A831884205D14FF03D51B74AC4
:101FA000103AD16049E0B949884204D13D21B74A8D
:101FB000083A116041E0B5491831884205D14FF423
:101FC0007461B24A083A116037E0B0493031884252
:101FD00005D14FF47411AD4A083A11602DE0AB49B8
:101FE0004831884205D14FF07461A84A083A11601F
:101FF00023E0A6496031884204D1A149A34A121FB7
:1020000011601AE0A1497831884204D19D499F4A64
:10201000121F116011E09D499031884204D19A4904
:102020009A4A121F116008E09849A831884204D1E9
:102030004FF03D51954A121F1160704710B50022B4
:102040000268934B1A40CC680B6823434C692343C6
:102050008C692343CC6923430C6A23434C6A234392
:102060008C6A23434C6B23438C6B23431A430260DB
:10207000426922F00702D1E90B3423431A4342613B
:102080000B6943604B6883608B68C36010BD00219F
:10209000016041608160C160016141618161C16134
:1020A000016241628162C162016341638163704781
:1020B00021B1026842F00102026003E0026822F0EE
:1020C00001020260704721B1026842F400420260DE
:1020D00003E0026822F400420260704721B1026806
:1020E00042F02002026003E0026822F02002026057
:1020F0007047416070470146486880B2704722B11E
:10210000036843F40023036003E0036823F400231F
:1021100003600161704721B1026842F480220260CD
:1021200003E0026822F48022026070470AB1016174
:1021300000E0C1607047014600200A6812F4002FD9
:1021400001D0012000E000207047014600200A680D
:1021500012F0010F01D0012000E00020704701467D
:1021600000204A6902F03800704730B503460A463D
:1021700000200024454DAB4202D24049103901E015
:102180004249103912F0005F01D04C6800E00C6841
:10219000404D2C40144201D0012000E0002030BD11
:1021A00002463A4B9A4202D23448103801E037488E
:1021B000103811F0005F03D0364B0B40C36002E0D3
:1021C000344B0B408360704710B511F0800F09D07D
:1021D00022B1436943F08003436103E0436923F084
:1021E0008003436180290BD02AB1036801F01E04EB
:1021F0002343036004E0036801F01E04A34303606B
:1022000010BD70B502460020002400251F4EB242CA
:1022100002D21A4B103B01E01C4B103B1E4E3142C8
:1022200006D01E2606EAD124166806EA040502E056
:10223000566906F0800511F0005F01D05C6800E08F
:102240001C68144E34400C4202D00DB1012000E055
:10225000002070BD02460D4B9A4202D2074810384A
:1022600001E00A48103811F0005F03D0094B0B4021
:10227000C36002E0074B0B40836070471060024070
:102280003D000020400F002000003D20106402406F
:102290003F801CF07D0F7D0F3C0F3C0F0020444918
:1022A0000860091D0860091D0860091D0860414893
:1022B0003F4914310860704700213D498279002A66
:1022C0003AD00A46126803689A430B461A600A1D00
:1022D000126803689A430B1D1A60027911440A6858
:1022E00003681A430A60324A0832126803689A4344
:1022F0002F4B08331A601A1D126803689A432C4B3F
:102300000C331A604279102A0ED11A1F1268036822
:102310001A43274B08331A601A1D126803681A43C0
:10232000234B0C331A600DE02149427911440A68AD
:1023300003681A430A6005E0027911440A680368D9
:102340009A430A6070470021016001710C214171BC
:102350000021817170471649103109680143144A00
:1023600010321160704701460020114A1432126881
:102370000A4201D0012000E0002070470C491431CE
:1023800008607047014600200022094B1B6803EAE1
:102390000102074B14331B680B4202D00AB1012023
:1023A00000E00020704702491431086070470000C7
:1023B000003C0140FFFF7F0010B504468C4884427A
:1023C00008D10121084600F000FB0021012000F0A7
:1023D000FCFA5EE08748844208D10121022000F027
:1023E000F4FA0021022000F0F0FA52E08248844220
:1023F00008D10121042000F0E8FA0021042000F0B7
:10240000E4FA46E07D48844208D10121082000F02A
:10241000DCFA0021082000F0D8FA3AE0784884423B
:1024200008D10121102000F0D0FA0021102000F086
:10243000CCFA2EE07348844208D10121202000F01C
:10244000C4FA0021202000F0C0FA22E06E48844245
:1024500008D10121402000F0B8FA0021402000F00E
:10246000B4FA16E06948844208D10121802000F0C6
:10247000ACFA0021802000F0A8FA0AE06448844207
:1024800007D10121801500F0A0FA0021A01500F06D
:102490009CFA10BDF0B50A4600210023002400BFBD
:1024A0003DE0012505FA01F3156805EA03049C42A5
:1024B00034D105684F000326BE40B5430560157949
:1024C0004E00B5400668354305601579012D02D0F0
:1024D0001579022D16D185684F000326BE40B543FD
:1024E000856055794E00B5408668354385604568FE
:1024F00001268E40B5434560456896798E40B6B258
:1025000035434560C5684F000326BE40B543C560EE
:10251000D5794E00B540C6683543C560491C1029C1
:10252000BFD3F0BD4FF6FF71016000210171417111
:102530008171C171704708B54FF480320092009AE2
:102540000A430092009AC261C161009AC261C269E5
:102550000092C269009208BD0246002013690B4236
:1025600001D0012000E0002070470146086980B2D8
:1025700070470246002053690B4201D0012000E061
:10258000002070470146486980B270470183704758
:10259000418370470AB1018300E041837047416184
:1025A000704742694A4042617047F0B500230024F9
:1025B0004D07ED0E02FA05F3CE1000F1200555F897
:1025C00026504E07F70E0F26BE40B543CF1000F140
:1025D000200646F82750CE1000F1200555F8265069
:1025E00045EA0304CE1000F1200545F82640F0BD71
:1025F000000002400004024000080240000C0240BB
:10260000001002400014024000180240001C02406A
:1026100000200240FA48006840F00100F8490860D4
:102620000020F74908310860F5480068F54908407E
:10263000F3490860F448091D0860081F006820F489
:102640008020091F08600020ED490C3108607047A8
:102650000021EB4A921C117011460870704710B5AA
:1026600001460022002300204A11012A02D1E44C35
:10267000236808E0022A03D1E14C7034236802E0A9
:10268000DF4C7434236801F01F02012494401C4283
:1026900001D0012000E0002010BD38B500200090DE
:1026A0000024002500BF3120FFF7D9FF0546009820
:1026B000401C00900098B0F5A06F01D0002DF2D022
:1026C0003120FFF7CCFF08B1012400E000242046B0
:1026D00038BD01460020CA4A106820F0F80040EAE0
:1026E000C10010607047C949086070470021C44AA2
:1026F000703211701170012802D004280AD104E050
:102700000121BF4A7032117005E00521BC4A7032C8
:10271000117000E000BF00BF7047BD4908607047FE
:1027200070B5049C41EA82150126C6EB530645EAC2
:102730000645054345EA0465B14E361D356070BD5A
:10274000B24908667047820142EA0172AC4B843399
:102750001A607047AD4988667047AC49C8647047D5
:1027600002460020A64B0833186820F0EC6042EACD
:1027700001031843A24B083318607047024600203B
:102780009F4B0833186820F0784042EA0103184351
:102790009B4B08331860704701460020984A083266
:1027A000106820F003000843106070479448083018
:1027B000006800F00C00704701460020904A083283
:1027C000106820F0F00008431060704701460020B8
:1027D0008B4A0832106820F4E050084310607047BC
:1027E00001460020864A0832106820F4604040EA22
:1027F000C10010607047F0B50021002200240225BE
:10280000002602237E4F08373F6807F00C0121B1F4
:10281000042905D0082937D105E07E4F076036E04E
:102820007D4F076033E0764F3F1D3F68C7F380560A
:10283000734F3F1D3F6807F03F036EB1764FB7FB04
:10284000F3F7DFF8BCC10CF1040CDCF800C0CCF3EA
:10285000881C07FB0CF40CE06E4FB7FBF3F7DFF8B6
:10286000A0C10CF1040CDCF800C0CCF3881C07FB01
:102870000CF4634F3F1D3F68C7F301477F1C7D0089
:10288000B4FBF5F7076002E0624F076000BF00BFCE
:102890005B4F08373F6807F0F00109095F4F7A5C2A
:1028A0000768D7404760564F08373F6807F4E05144
:1028B000890A5A4F7A5C4768D7408760504F08377B
:1028C0003F6807F46041490B544F7A5C4768D74032
:1028D000C760F0BD002100F44072B2F5407F0AD11C
:1028E000474A0832116821F4F8114D4A0240114359
:1028F000434A08321160424A70321268C0F30B0337
:102900001A433F4B70331A6070474149443908609D
:1029100070473F4940390860704742490860704736
:1029200039B1374A303212680243354B30331A60BE
:1029300006E0334A303212688243314B30331A603A
:10294000704739B12E4A3432126802432C4B34336B
:102950001A6006E02A4A343212688243284B343324
:102960001A60704739B1264A383212680243244B44
:1029700038331A6006E0224A383212688243204B0C
:1029800038331A60704739B11D4A40321268024329
:102990001B4B40331A6006E0194A403212688243EA
:1029A000174B40331A60704739B1154A44321268E8
:1029B0000243134B44331A6006E0114A4432126852
:1029C00082430F4B44331A60704739B10C4A1032BE
:1029D000126802430A4B10331A6006E0084A1032AC
:1029E00012688243064B10331A607047E1B1044A03
:1029F000143212680243024B14331A6019E00000CB
:102A000000380240FFFFF6FE10300024000047426D
:102A1000800E47420024F40000127A006C0000206F
:102A2000FFFCFF0F5C0147425B4A126882435A4B2E
:102A30001A60704739B1584A121D12680243564B4A
:102A40001B1D1A6006E0544A121D12688243524B45
:102A50001B1D1A60704739B14F4A0C32126802438D
:102A60004D4B0C331A6006E04B4A0C32126882431D
:102A7000494B0C331A60704739B1474A103212681B
:102A80000243454B10331A6006E0434A1032126885
:102A90008243414B10331A60704739B13E4A3C3291
:102AA000126802433C4B3C331A6006E03A4A3C321F
:102AB00012688243384B3C331A60704739B1364A4A
:102AC000403212680243344B40331A6006E0324A07
:102AD000403212688243304B40331A60704739B13C
:102AE0002D4A4432126802432B4B44331A6006E0ED
:102AF000294A443212688243274B44331A60704794
:102B000039B1254A4C3212680243234B4C331A60C8
:102B100006E0214A4C32126882431F4B4C331A6044
:102B2000704739B11C4A5032126802431A4B503375
:102B30001A6006E0184A503212688243164B50332E
:102B40001A60704739B1144AD21F12780243124BEF
:102B5000DB1F1A7006E0104AD21F127882430E4B18
:102B6000DB1F1A7070470C486030006840F08070BE
:102B7000094960310860704701460020064A083A5A
:102B800012680A4201D0012000E00020704702498B
:102B9000891F0870704700001438024010B50446C1
:102BA000F648844208D101218014FFF765FF002117
:102BB000A014FFF761FF16E0F148844208D101211B
:102BC0000014FFF748FF00212014FFF744FF0AE03C
:102BD000EC48844207D10121C013FFF73CFF0021DC
:102BE000E013FFF738FF10BD10B50022028802F491
:102BF00041520B884C8823438C882343CC88234341
:102C00000C8923434C8923438C892343CC89234358
:102C10001A430280838B4FF2FF74234083830B8A15
:102C2000038210BD2DE9F04F002502230024012767
:102C300000220026944690469146B0F81CA04FF220
:102C4000400B0AEA0B0AA0F81CA04FF0020AA0F8F9
:102C500020A0858BD1F808A0BAF1020F01D100BFE6
:102C60006AE0B1F804A0BAF1000F01D1012700E039
:102C70000227DFF814A3DAF800A01AF4000F09D035
:102C8000DFF804A3DAF800A02AF4000ADFF8F8B2AB
:102C9000CBF800A0DFF8F0A20AF17C0ADAF800A075
:102CA000CAF38818DFF8E0A20AF17C0ADAF800A07B
:102CB000CAF30279DFF8D0A2AAF1040ADAF800A078
:102CC0000AF03F0CDFF8C4A2BAFBFCFA0AFB08FAD0
:102CD000BAFBF9F6B1F806A0BAF5007F0ED14FEABB
:102CE000162A0AEB8A0A4FEA4A0AD1F808B0BAFB58
:102CF000FBFA0AF1050A1FFA8AF20FE04FEA471AB7
:102D0000B6FBFAFA0AEB8A0A4FEA4A0AD1F808B087
:102D1000BAFBFBFA0AF1050A1FFA8AF24FF00A0A17
:102D2000B2FBFAF202F00104A2EB040ACAF34F0369
:102D30004FF6FF7A0AEA0424022B01DBFF2B01DDA8
:102D400002230024B1F806A04AEA040A4AEA030A68
:102D5000A0F820A0B1F804A0B1F80CB04AEA0B0A20
:102D6000B1F802B04AEA0B0AB1F800B04AEA0B0A1D
:102D70004AF4006A4AEA05058583BDE8F08F002120
:102D8000018041808180C180018141818181C18137
:102D90000721018270470021018041808180C1802C
:102DA0000221816000218181704721B1028842F0B7
:102DB0004002028004E002884FF6BF731A4002808E
:102DC000704721B1828B42F48062828304E0828B5F
:102DD0004FF6FF331A408283704702884FF2FF7329
:102DE0001A40028002880A4302807047B1F5804F82
:102DF00004D1028842F48042028004E002884BF64B
:102E0000FF731A4002807047A1F57E42FF3A04D05A
:102E1000028842F48072028004E002884FF6FF6369
:102E20001A400280704721B1828842F004028280F9
:102E300004E082884FF6FB731A408280704721B10C
:102E4000828842F01002828004E082884FF6EF739D
:102E50001A408280704730B500220023848B4FF2E5
:102E600040052C40848302240484828B0C88B4F5B2
:102E7000007F01D00C8814B94FF4807308E00C88EF
:102E8000B4F5407F03D00C88B4F5807F00D10023D7
:102E90008C888D892C434D882C431C4344F400645A
:102EA0002243828330BD0146888970478181704703
:102EB00021B1028842F40052028004E002884DF6FB
:102EC000FF731A4002807047018841F480510180ED
:102ED000704702460020012901D0108B00E0908A43
:102EE00070470146088A70471AB183880B43838074
:102EF00002E083888B438380704730B50024002331
:102F00000C110125A540ABB21AB185881D438580FF
:102F100002E085889D43858030BD024600201389EC
:102F20000B4201D0012000E000207047CA4302811B
:102F30007047F0B50246002000240023002501F070
:102F40000F070126BE40B4B20B1101269E40B3B25A
:102F5000968806EA03051689264202D00DB10120A3
:102F600000E00020F0BD10B5002201F00F040123A5
:102F7000A3409AB2D343038110BD0000003001404A
:102F800000380040003C00400838024000127A003F
:102F900010B501218803FFF76FFD00214FF4804039
:102FA000FFF76AFD10BD1A490860704730B500226E
:102FB0008B071C0F0F2303FA04F2154B08338C10F8
:102FC00053F824309343124C08348D1044F82530C4
:102FD00023468C1053F824308C07240F00FA04F495
:102FE00023430B4C08348D1044F8253030BD09497B
:102FF0000860704708490860704700200449203184
:10300000096811F4807F01D0012000E000207047A2
:1030100000380140DC0027420004274210B5044676
:10302000FE48844208D101210846FFF725FD002112
:103030000120FFF721FD9DE0B4F1804F08D101216F
:103040000846FFF708FD00210120FFF704FD91E08D
:10305000F348844208D101210220FFF7FCFC002143
:103060000220FFF7F8FC85E0EE48844208D10121F8
:103070000420FFF7F0FC00210420FFF7ECFC79E0CE
:10308000E948844208D101210820FFF7E4FC00212F
:103090000820FFF7E0FC6DE0E448844208D10121FC
:1030A0001020FFF7D8FC00211020FFF7D4FC61E0CE
:1030B000DF48844208D101212020FFF7CCFC002109
:1030C0002020FFF7C8FC55E0DA48844208D10121EE
:1030D0000220FFF7D1FC00210220FFF7CDFC49E0E0
:1030E000D548844209D101210804FFF7C5FC00211D
:1030F0004FF48030FFF7C0FC3CE0D048844209D157
:1031000001214804FFF7B8FC00214FF40030FFF71D
:10311000B3FC2FE0CA48844209D101218804FFF79B
:10312000ABFC00214FF48020FFF7A6FC22E0C5484D
:10313000844208D101214020FFF78DFC002140206E
:10314000FFF789FC16E0C048844208D101218020A5
:10315000FFF781FC00218020FFF77DFC0AE0BB48DF
:10316000844207D101218015FFF775FC0021A015CD
:10317000FFF771FC10BD00220288A84B98420ED0C8
:10318000AC4B98420BD0B0F1804F08D0A44B984282
:1031900005D0A44B984202D0A34B984204D14FF6DD
:1031A0008F731A404B881A43A04B984207D0A04B0C
:1031B000984204D04FF6FF431A400B891A4302800D
:1031C0004B68C3620B880385944B984202D0994B9D
:1031D000984201D18B7A03860123838270474FF096
:1031E000FF3141600021018001814180817270477F
:1031F0000185828270470A46002101884FF68F734D
:10320000194011430180704741627047C1627047A5
:103210000146486A70470146088D704721B102880F
:1032200042F00202028004E002884FF6FD731A4069
:103230000280704721B1028842F00402028004E05B
:1032400002884FF6FB731A400280704721B1028852
:1032500042F08002028004E002884FF67F731A4039
:103260000280704702884FF6F7731A400280028886
:103270000A430280704702884FF6FF431A400280DB
:1032800002880A430280704721B1028842F001029D
:10329000028004E002884FF6FE731A4002807047F5
:1032A00070B5002400220023058C4FF6FE763540D1
:1032B0000584028C8388048B4FF68F752C40B51ED5
:1032C0002C400D882C43751E2A408D892A434D8839
:1032D0002A43524DA84202D0564DA84213D14FF670
:1032E000F7752A40CD892A434FF6FB752A408D8811
:1032F0002A434FF6FF652B404FF6FF552B400D8AB2
:103300002B434D8A2B43838004838D68456302845D
:1033100070BD70B5002400220023058C4FF6EF76B7
:1033200035400584028C8388048B48F6FF752C4059
:103330004FF6FF452C400D884FF6FF7606EA05252F
:103340002C434FF6DF752A408D8906EA05152A437E
:103350004D8806EA05152A43304DA84202D0354D66
:10336000A8421DD14FF67F752A40CD894FF6FF76D2
:1033700006EA05152A434FF6BF752A408D8806EAEE
:1033800005152A434FF6FF352B404FF2FF752B40B2
:103390000D8A06EA85052B434D8A06EA85052B43EF
:1033A000838004838D688563028470BD70B50024BA
:1033B00000220023058C4FF6FF6635400584028C01
:1033C0008388848B4FF68F752C404FF6FC752C400C
:1033D0000D882C434FF6FF552A408D894FF6FF7616
:1033E00006EA05252A434D8806EA05252A430B4DA2
:1033F000A84202D00F4DA84238D14FF2FF752A40A3
:10340000CD894FF6FF7606EA05252A434FF6FF35AC
:103410002A408D8806EA05252A4319E0000001406C
:103420000004004000080040000C00400010004074
:1034300000140040000401400040014000440140ED
:103440000048014000180040001C004000200040DF
:103450004EF6FF752B404DF6FF752B400D8A06EAA0
:1034600005152B434D8A06EA05152B43838084837B
:103470008D68C563028470BD70B5002200230024EE
:10348000058C4EF6FF7635400584038C8488828B4C
:1034900048F6FF752A404FF6FF452A400D884FF643
:1034A000FF7606EA05252A434DF6FF752B408D89E8
:1034B00006EA05352B434D8806EA05352B43FE4DBC
:1034C000A84202D0FD4DA84208D14BF6FF752C4012
:1034D0000D8A4FF6FF7606EA85152C438480828399
:1034E0008D680564038470BD002101804180818066
:1034F00081608181C18101824182704770B503463C
:10350000002000241846183001258D40ACB21D8CD7
:10351000A5431D8409B108290AD100EB61000568A3
:103520004FF68F76354005600568154305600FE05E
:103530000D1FC5F34E052844056848F6FF76354053
:10354000056005684FF6FF7606EA022635430560FA
:1035500070BD4163704781637047C1637047016408
:1035600070470A460021018B4FF68F7319401143B3
:10357000018370470A460021018B48F6FF7319400A
:103580004FF6FF7303EA02231943018370470A468B
:103590000021818B4FF68F7319401143818370474F
:1035A0000A460021818B48F6FF7319404FF6FF73DE
:1035B00003EA02231943818370470A460021018BE5
:1035C0004FF6F77319401143018370470A460021F3
:1035D000018B4FF2FF7319404FF6FF7303EA02238A
:1035E0001943018370470A460021818B4FF6F77318
:1035F00019401143818370470A460021818B4FF2A5
:10360000FF7319404FF6FF7303EA022319438183C6
:1036100070470A460021018B4FF6FB731940114396
:10362000018370470A460021018B4FF6FF33194092
:103630004FF6FF7303EA02231943018370470A46DA
:103640000021818B4FF6FB73194011438183704732
:103650000A460021818B4FF6FF3319404FF6FF7366
:1036600003EA02231943818370470A460021018B34
:103670004FF67F7319401143018370470A460021BA
:10368000018BC1F30E014FF6FF7303EA02231943C6
:10369000018370470A460021818B4FF67F731940E2
:1036A0001143818370470A460021818BC1F30E01CB
:1036B0004FF6FF7303EA02231943818370470A46DA
:1036C0000021018C4FF6FD731940114301847047AE
:1036D0000A460021018C4FF6F7731940114301840B
:1036E00070470A460021018C4FF6DF7319404FF6F0
:1036F000FF7303EA02131943018470470A4600214D
:10370000018C4FF67F7319404FF6FF7303EA0213E3
:103710001943018470470A460021018C4FF6FF537C
:1037200019404FF6FF7303EA0223194301847047DF
:103730000A460021018C4FF2FF7319404FF6FF73C8
:1037400003EA02231943018470470A460021018CD1
:103750004DF6FF7319404FF6FF7303EA0233194326
:103760000184704730B5002301248C40A3B2048C3F
:103770009C430484048C02FA01F5ADB22C4304840A
:1037800030BD30B5002304248C40A3B2048C9C438C
:103790000484048C02FA01F5ADB22C43048430BDDC
:1037A000828B4FF2FF331A408283828B4FF6FF7376
:1037B00003EA01231A4382837047F0B50C4615468D
:1037C000002100220026078C4EF6FF7C07EA0C073A
:1037D0000784818B028C4FF6FF7707EA043640F6A8
:1037E000FF4739404FF6FF7707EA052739434FF681
:1037F000FF7707EA0337394345F6FF773A4046F447
:1038000080573A4381830284F0BD828B4FF6F37375
:103810001A408283828B0A4382837047F0B50C463C
:103820001546002100220026078C4FF6FF6C07EAA0
:103830000C070784818B028C4FF6FF7707EA04267A
:103840004FF60C7739404FF6FF7707EA03172F43FF
:1038500039434FF2FF573A4046F480773A43818329
:103860000284F0BD028B4FF2FF331A400283028BB9
:103870004FF6FF7303EA01231A4302837047F0B542
:103880000C461546002100220026078C4FF6EF7CDF
:1038900007EA0C070784018B028C4FF6FF7707EAD3
:1038A000041640F6FF4739404FF6FF7707EA033723
:1038B00039434FF6FF7703E0000001400004014068
:1038C00007EA052739434FF65F773A4046F010077D
:1038D0003A4301830284F0BD028B4FF6F3731A4022
:1038E0000283028B0A4302837047F0B50C461546EB
:1038F00000210022068C4FF6FE773E400684018BA5
:10390000028C4FF60C7631407E1C06EA03162E43DD
:1039100031434FF6F576324044F0010632430183DD
:103920000284F0BD70B505460C46208850B9238945
:10393000A28861882846FFF7D8FFE1882846FFF76C
:10394000CBFF25E0208804280AD12389A28861883A
:103950002846FFF794FFE1882846FFF783FF17E02A
:10396000208808280AD12389A28861882846FFF781
:1039700055FFE1882846FFF748FF09E02389A28820
:1039800061882846FFF719FFE1882846FFF708FFFE
:1039900070BD002101804180012181800021C18012
:1039A000018170472DE9F04105460C4600260127AC
:1039B000608808B9022600E00026A088012801D10D
:1039C000022700E001272088A0B92389A288618806
:1039D0002846FFF78AFFE1882846FFF77DFF238905
:1039E0003A4631462846FFF74AFFE1882846FFF766
:1039F00039FF13E02389A28861882846FFF73FFF3B
:103A0000E1882846FFF72EFF23893A4631462846AB
:103A1000FFF76BFFE1882846FFF75EFFBDE8F08106
:103A20000146486B70470146886B70470146C86B7A
:103A300070470146086C70470A884B881A438B8888
:103A40001A43CB881A430B891A434B891A438B8933
:103A50001A43A0F8442070470021018041808180F2
:103A6000C180018141818181704731B1B0F844202A
:103A700042F40042A0F8442005E0B0F84420C2F32C
:103A80000E02A0F84420704721B1828842F004025F
:103A9000828004E082884FF6FB731A408280704770
:103AA00021B1828842F00102828004E082884FF6D0
:103AB000FE731A40828070471AB183890B43838159
:103AC00002E083898B43838170478182704702467D
:103AD0000020138A0B4201D0012000E00020704733
:103AE000CA430282704730B50246002000230024FA
:103AF000158A05EA0103958905EA010413B10CB1A1
:103B0000012000E0002030BDCA430282704741EA34
:103B10000203A0F8483070471AB183890B438381B0
:103B200002E083898B438381704721B1828842F010
:103B30000802828004E082884FF6F7731A40828080
:103B4000704701894FF6F8721140018170470A46AB
:103B5000002101894FF68F7319401143018170478D
:103B600030B504460D4629462046FFF7F0FF208970
:103B700040F00700208130BD2DE9F04104460D469C
:103B800016461F46602D06D13B460122314620468F
:103B9000FFF775FE05E03B46012231462046FFF760
:103BA000A4FE29462046FFF7D2FF208940F00700F7
:103BB0002081BDE8F08130B50C4600210189C9B2F1
:103BC0004FF6FF7505EA0325154325432943018177
:103BD00030BD2DE9F04105460E46174698460024B3
:103BE00043463A4631462846FFF7E5FF2C894FF613
:103BF000F870044044F007044FF68F70044044F01E
:103C000070042C81BDE8F081F0B504460D461646DF
:103C10001F463B46324629462046FFF7CCFF208907
:103C200040F480402081F0BD82884FF68F731A40A7
:103C3000828082880A438280704702894FF6F87337
:103C40001A40028102890A430281704702894FF6B5
:103C50007F731A40028102890A4302817047F0B5DE
:103C60000C4615461E460021002200230189028BC6
:103C7000038C4FF6F877394021434FF6FC473A4022
:103C800040F201173A434FF6DD773B404FF6FF779E
:103C900007EA06172F433B43018102830384F0BDEB
:103CA00021B1828842F08002828004E082884FF64F
:103CB0007F731A4082807047A0F850107047D2B2CC
:103CC00001E000F8012B491EFBD270470022F6E705
:103CD00010B513460A4604461946FFF7F0FF204682
:103CE00010BD2DE9FE4F804681EA0300C00F0C464F
:103CF000009021F0004123F00045B8EB0200A941FB
:103D000005D24046214690461C460B46024623F00B
:103D10000040104304D14046214603B0BDE8F08F77
:103D2000270DC7F30A00C3F30A510290401A01900D
:103D3000402866DAC3F3130040F4801B00989246D3
:103D400020B10023D2EB030A63EB0B0B0198594619
:103D5000C0F14002504600F008FA06460D465046B3
:103D60005946019A00F010FA10EB08006141002456
:103D700087EA115284EAE7731A433BD0009A3AB3B8
:103D8000019A012A4FEA075210DC001B61EB020185
:103D90004FF0004202EA0752CDE90042001C41F513
:103DA000801132462B4600F044FAB6E7001B61EB67
:103DB0000201001C41F5801300185B412018A2F598
:103DC000001747EB030140EAD570B6196D4111E0C9
:103DD0006D084FEA360645EAC0754FEA0752001BE8
:103DE00061EB0201001C41F5801149084FEA3000E7
:103DF0000019514132462B4603B0BDE8F04F00F0A8
:103E00000BBA0098012240000023D0EB020263EBC2
:103E1000E073009821464FEAE074B8EB000061EBD4
:103E20000401E9E783F000435BE781F0004158E7D4
:103E30002DE9FE4F81EA030404F0004421F0004123
:103E400000944FF0000B23F0004350EA010402D02D
:103E500052EA030404D10020014603B0BDE8F08F0C
:103E6000C3F30A54C1F30A552C44A4F2F334019469
:103E7000A0FB0254C1F3130141F48011C3F31303F7
:103E800043F4801301FB024400FB034E840A970AAB
:103E900044EA815447EA8357A4FB076802958D0AD8
:103EA00005FB07854FEA932C04FB0C542705029D64
:103EB0004FEA065847EA1637B5EB08056EEB070CD4
:103EC000870E920E47EA811742EA8312A7FB02018E
:103ED000B6EB0B0164EB00042B0D43EA0C335E18C8
:103EE00044EB1C50DA465146E7FB0201C5F31304CC
:103EF0004FEA0B3343EA14534FEA0432019C43EA7E
:103F00000603A4F10C040294009CCDE900B400F077
:103F100090F9A2E72DE9F04D81EA030404F0004B8B
:103F200021F0004514464FF0000A23F0004150EA0A
:103F3000050220D054EA01021DD0C5F30A570246FB
:103F4000C5F31303C1F31300C1F30A5640F48015FF
:103F500043F48013A7EB0608101BD64608F2FD3881
:103F600073EB050002D308F1010801E092185B41F0
:103F7000B8F1000F03DA00200146BDE8F08D002003
:103F80004FF48011064684460EE0171B73EB0507BD
:103F900005D3121B63EB050306434CEA010C4908E9
:103FA0004FEA300092185B4150EA0107EDD152EA26
:103FB000030012D082EA040083EA0501084303D11A
:103FC00000224FF0004308E0101BAB4102D2012257
:103FD000002302E06FF0010253101AEB06004CEBD5
:103FE000085110EB0A0041EB0B01BDE8F04D00F069
:103FF00013B90EB5C10F80EAE0700844CA0700216A
:1040000040F233438DE80E000A460B4600F011F9EA
:1040100003B000BD0EB540F2334102910021CDE95D
:1040200000110A460B4600F004F903B000BD00F091
:10403000004230F000400AD0C10D01F56071C0F3BC
:10404000160042EA0151C2084007114370470020A0
:104050000146704730B5002904DB4FF00044404270
:1040600064EB0101002B04DB4FF00044524264EB8F
:1040700003038B4208BF824230BD000030B50029E7
:1040800004DB4FF00044404264EB0101002B04DBF1
:104090004FF00044524264EB0303994208BF904240
:1040A00030BD000001F0004330B421F0004150EA7F
:1040B000010206D00A0DA2F56072C1F31301002AB5
:1040C00002DC30BC00207047440F44EAC104C10048
:1040D000E01830BC00EBC25000F068B830B50B46B9
:1040E000014600202022012409E021FA02F59D4228
:1040F00005D303FA02F5491B04FA02F52844151EFC
:10410000A2F10102F1DC30BD2DE9F05F054600208F
:1041100092469B4688460646814640241BE0284638
:1041200041464746224600F091F953465A46C01A86
:10413000914110D311461846224600F016F82D1A68
:1041400067EB01084F4622460120002100F00DF8E0
:1041500017EB00094E41201EA4F10104DFDC4846A4
:1041600031462A464346BDE8F09F202A04DB203A28
:1041700000FA02F1002070479140C2F1200320FABA
:1041800003F3194390407047202A06DBCB17203AEF
:1041900041FA02F043EAE07306E041FA02F3D0404C
:1041A000C2F1200291400843194670470029A8BF78
:1041B0007047401C490008BF20F00100704710B450
:1041C000B0FA80FC00FA0CF050EA010404BF10BC05
:1041D000704749B1CCF1200421FA04F411FA0CF132
:1041E00018BF012121430843A3EB0C01CB1D01069D
:1041F000000A002BBEBF002010BC704700EBC3506C
:1042000010440029A4BF10BC7047401C490008BFDF
:1042100020F0010010BC704710B5002B08DA401CDC
:1042200041F1000192185B411A4301D120F00100D5
:1042300010BD2DE9F04D92469B4611B1B1FA81F2C5
:1042400002E0B0FA80F220329046FFF78EFF04467B
:104250000F4640EA0A0041EA0B0153465A4608431A
:1042600003D120463946BDE8F08D114653EA0100DE
:1042700015D0C8F14002504600F0E8F805460E4659
:10428000504659464246FFF770FF084301D00120CF
:1042900000E00020054346EAE0762C4337430A98C5
:1042A0004FEA4453A0EB08004FEAD4240A304FF001
:1042B000000244EA47544FEAD72502D500200146C0
:1042C000D1E7010510196941DDE908450019694187
:1042D000BDE8F04DA0E72DE9F04D00231A461B1A6A
:1042E0008A4103DB00200146BDE8F08DC1F30A528C
:1042F000C1F3130141F480154FF0000BD10702D137
:1043000000186D41521E0027044640F2FF11384646
:1043100001EB620A3E468046024600204FF48011BF
:1043200000F094F8C2197141BB1846EB0100B4EBE0
:10433000030C75EB000C04D3E41A65EB000517467B
:104340000E46241908F101006D4180463428E3DD52
:10435000F91946EB0600091BA84103D24FF0FF32C2
:10436000134601E0002213461BEB070046EB0A51FF
:10437000BDE8F04DFFF750BF2DE9FE4FC3F30A57DC
:1043800001F000450024C1F30A56C3F31303C1F33F
:10439000130143F4801312EB020AA64641F4801184
:1043A000009543EB030CA7F1010B13E0B0EB0A00FF
:1043B00071EB0C0107D54FF00008D0EB080085F039
:1043C000004568EB0101171A73EB0107EED3761E67
:1043D000001849415E45F6DA50EA010204D100991D
:1043E000204603B0BDE8F08FCDE900E5002213467A
:1043F0000296FFF71EFFF4E7C1F30A52C1F313015F
:1044000040F2FF3341F480119A4202DA0020014663
:10441000704740F233439A42A2F2334202DC5242E6
:1044200000F014B8FFF7A1BE064C074D06E0E068A7
:1044300040F0010394E8070098471034AC42F6D3EB
:10444000FBF7A6FE1069000840690008202A04DB7B
:10445000203A21FA02F00021704721FA02F3D040FD
:10446000C2F1200291400843194670470000000045
:104470000FB4054B10B503A9044A029800F0CCFC18
:1044800010BC5DF814FB0000F709000830000020A4
:1044900003B401984100009850EAC12018BF0420DD
:1044A0004A0D18BF40F0010040F2FF72B2EB515FBD
:1044B00008BF40F00200012808BF052002B0704785
:1044C00070B59F482DED020B2DED068B079D25F055
:1044D000004484421DDB9B48844202DC0FD10698D5
:1044E00068B19DED060B53EC102B51EC100BFFF750
:1044F000F8FBBDEC068B02B041EC100B70BD002D3B
:10450000CCBF9FED910B9FED920BBDEC068B02B0E3
:1045100070BD9148844215DA90488442A8BF4FF09C
:10452000FF3440DA9DED060B51EC100BFFF7B0FFA6
:10453000042808BF00F078FB9DED060BBDEC068B50
:1045400002B070BD9DED060B51EC100B01F040F870
:1045500041EC100B82488DED060B9FED838B84425E
:104560003CDA834884421FDA00249FED839B51ECA0
:10457000100B53EC192BFFF7B4FB9DED060B41EC30
:104580001A0B53EC192B51EC100BFFF751FC53ECA9
:10459000182BFFF747FC53EC1A2BFFF7BBFC41EC41
:1045A000100B8DED060B49E0012453EC182B51EC58
:1045B000100BFFF796FB9DED060B41EC190B53EC2E
:1045C000182B51EC100BFFF72DFC53EC192BFFF7B8
:1045D000A1FC41EC100B8DED060B2FE068488442E6
:1045E0001FDA02249FED689B51EC100B53EC192B42
:1045F000FFF71EFC53EC182BFFF773FB9DED060B2A
:1046000041EC180B53EC192B51EC100BFFF70AFC83
:1046100053EC182BFFF77EFC41EC100B8DED060BD5
:104620000CE053EC102B03249FED590B51EC100BB5
:10463000FFF770FC41EC100B8DED060B9DED060BAA
:1046400053EC102B51EC100BFFF7F2FB41EC180B65
:1046500053EC182BFFF7ECFB41EC190B4E480621ED
:10466000B0EE490AF0EE690A784400F05EFA53ECC5
:10467000182B51EC100BFFF7DBFB41EC180B4748F4
:10468000B0EE490AF0EE690A0521784400F04DFACF
:1046900053EC192B51EC100BFFF7CAFB41EC100B3C
:1046A00051EC180B53EC102B002C0EDAFFF719FB12
:1046B0009DED061B53EC112BFFF7BAFB9DED061B7E
:1046C00053EC112BFFF7B1FB35E0FFF70AFB9DED33
:1046D000061B53EC112BFFF7ABFB41EC100B3048E2
:1046E000784400EBC40090ED001B51EC100B53EC30
:1046F000112BFFF797FB9DED061B53EC112BFFF7DA
:1047000091FB41EC110B2748784400EBC40090ED7D
:10471000000B51EC110B53EC102BFFF786FB41EC17
:10472000100B002DA2BFBDEC068B02B070BD51EC8A
:10473000100B81F0004141EC100BFFE6000000007F
:10474000000010440000F07F182D4454FB21F93F75
:10475000182D4454FB21F9BF0000DC3F0000203E2F
:104760000000F33F00000000000000000000F03FE8
:104770000000E63F000000000000000000000040D4
:104780000080034000000000000000000000F83F2F
:10479000000000000000F0BF6C2200002222000098
:1047A000AC2100006421000070B52DED040B2DED4F
:1047B000028B82B0DDE90534DDF81CC062422CF0CA
:1047C0000041224341EAD2755F4A049E23F0004033
:1047D000954205D87542354340EAD575954210D9C2
:1047E0009DED060B53EC102B9DED040B51EC100BC3
:1047F000FFF777FA41EC100B02B0BDEC028B04B06E
:1048000070BDACF14055A5F17F6525430BD0022565
:1048100005EAAC7545EAD37506439FED4D8B9FEDD8
:104820004E2B07D010E09DED040B51EC100B00F067
:1048300096FE39E0002D14BF012D9DED040BDBD059
:10484000022D34D0032D37D00C439FED451B9FED37
:10485000460B0AD0914218D1904209D121F08041F3
:1048600020F08040079105900FE0002BC4DA10E0A3
:104870003F4C7C44002D08BF94ED000BBCD0012DB3
:104880000CD0022D13D0032D16D0904219D1002B3D
:10489000B2DAB0EE410AF0EE610AADE794ED000B3A
:1048A00051EC100B81F0004141EC100BA4E7B0EE8D
:1048B000480AF0EE680A9FE7B0EE420AF0EE620A9C
:1048C0009AE7401A00153C2817DCBCF1000FBCBF6A
:1048D00010F13C0F9FED280B0FDB9DED060B53EC09
:1048E000102B9DED040B51EC100BFFF713FB00F0A8
:1048F0006FFE00F034FE41EC100B002D8DED000B2F
:104900003FF47AAF012D10D0022D9FED1D0B53EC1B
:10491000102B9DED000B51EC100B0ED0FFF782FA1F
:1049200053EC182BFFF77EFABEE710EE900A80F0EA
:10493000004001909DED000B5EE7FFF773FA53EC2A
:10494000182BFFF772FAAFE70000F07F00000000BD
:10495000182D4454FB210940182D4454FB2109C053
:10496000182D4454FB21F9BF182D4454FB21F93F65
:104970009220000000000000000000000000000085
:10498000075C143326A6A13C10B52DED040B2DEDCC
:10499000028B86B09DED080B10EE100A10EE901AF7
:1049A0008DED000B002818BF0120084320F00040C7
:1049B000C0F17F6000F1E040C00F23D19DED0A0BF4
:1049C00010EE101A10EE900A8DED000B002918BFA2
:1049D0000121084320F00040C0F17F6000F1E04079
:1049E000C00F0FD12E4909989FED2F8BB1EB400FCF
:1049F00004BF0898002847D00B98400004BF0A98CD
:104A0000002841D09DED0A0B53EC102B9DED080BB7
:104A100051EC100BFFF7B0FC41EC100B40F2FF71B2
:104A200010EE900A8DED020B8DED000B31EA105067
:104A300023D00998039900F0004001F0004188421A
:104A40001BD09DED0A0B8DED040B9DED020B8DED42
:104A5000000B10EE900A059961F31E0005909DED84
:104A6000041B9DED020B51EC110B53EC102BFFF7C7
:104A7000DCF941EC100B8DED020B9DED020B06B045
:104A8000BDEC028B04B010BD012000F0EDF853EC3A
:104A9000182B51EC180BFFF73DFA41EC100BEEE729
:104AA0000000E0FF00000000000000000000000027
:104AB00000B52DED048BB0EE408AF0EE608A83B035
:104AC00051EC180BFFF707FC41EC190B19EE100A1B
:104AD00019EE901A8DED009B002818BF01200843A5
:104AE00020F00040C0F17F6000F1E040C00F14D022
:104AF00018EE101A18EE900A8DED008B002918BFE1
:104B00000121084320F00040C0F17F6000F1E04047
:104B1000C00F04BF012000F0A7F8B0EE490A03B0AF
:104B2000F0EE690ABDEC048B00BD70B504462DEDB6
:104B3000028B4D1E00EBC500B0EE408AF0EE608A9D
:104B400090ED000B35F0060017D053EC182B51EC0C
:104B5000100BFFF76DF941EC100B6D1E04EBC50057
:104B600090ED001B51EC100B53EC112BFFF7B9F833
:104B700041EC100B35F00600E7D1022D36D0042DA4
:104B80001CD0062D1CBFBDEC028B70BD53EC182B46
:104B900051EC100BFFF74CF994ED0A1B53EC112B61
:104BA000FFF79FF853EC182BFFF742F994ED080B31
:104BB00053EC102BFFF795F841EC100B53EC182B2E
:104BC00051EC100BFFF734F994ED060B53EC102B5E
:104BD000FFF787F853EC182BFFF72AF994ED041B25
:104BE00053EC112BFFF77DF841EC100B53EC182B15
:104BF00051EC100BFFF71CF994ED020B53EC102B4A
:104C0000FFF76FF853EC182BFFF712F994ED000B38
:104C100053EC102BFFF765F8BDEC028B41EC100B49
:104C200070BD0000000000009FED050B10B553ECB7
:104C3000102B51EC100BFFF7FBF841EC100B10BDE3
:104C4000000000000000001002E008C8121F08C1A8
:104C5000002AFAD170477047002001E001C1121FFD
:104C6000002AFBD17047000001490860704700002E
:104C7000980000202DE9FF5FDDE90220010DDDF83D
:104C800038B0024310D10F9801244CA2012808D05B
:104C9000002100980F9BC0E90021C0E90243BDE854
:104CA000FF9F6FEA0B01F4E7A1F2FF3144F61050C9
:104CB00041430D140F9801280ED0A5EB0B00401CAA
:104CC0004FF000043E4EDFF8FC90B0F1000AA04621
:104CD00005DACAF1000717E0CBF10000F0E707465C
:104CE00012E0F80707D02246334640464946FFF710
:104CF0009FF8804689462246334610461946FFF7FC
:104D000097F804460E467F10002FEAD1DDE9020134
:104D1000BAF1000F42464B4602DAFFF789F801E08C
:104D2000FFF7F8F804460E460022274BFFF7A6F9D6
:104D300003D84FF0FF30014607E00022234B204606
:104D40003146FEF7CEFFFFF757FB102409E0002C99
:104D50000ADB0A220023FFF7D7F9019B30321A55EC
:104D6000641E50EA0102F2D1641C019AC4F11103DD
:104D700014440F9A012A09D00122084301D15B454E
:104D80000FDD4FF0000205F101050DE0084303D1EE
:104D9000A3EB0B056D1E09E000204FF0110B0F90E7
:104DA00088E701DA00226D1E002A83D000980F994F
:104DB000C0E90231C0E9004571E7000030000000A1
:104DC000000024400000F03F0000F0430000E03FFE
:104DD00010B5002A06DA22F00042D21D22F00703A5
:104DE000102203E0D21C22F003030C2213B19C1802
:104DF0008C4201D9012010BD024401448360C0E906
:104E00000021C91AD018884202D810600246F9E77A
:104E10000020106010BD00002DE9FF4F95B09B46AB
:104E200089460646002512E2252878D10024761C02
:104E3000F94A2746012105943378203B01FA03F013
:104E4000104202D00443761CF6E730782A2811D0AD
:104E50006FF02F033078A0F13002092A16D8059A96
:104E600044F0020402EB820203EB42021044761C7F
:104E70000590EFE759F8042B0592002A03DA504217
:104E800044F40054059044F00204761C30782E2837
:104E900016D116F8010F44F004042A280DD06FF043
:104EA0002F023078A0F13003092B09D807EB8703D4
:104EB00002EB4303C718761CF3E759F8047B761C12
:104EC00030786C280FD006DC4C2817D068280DD01D
:104ED0006A2814D104E0742810D07A280FD10DE08C
:104EE00044F400140AE044F4801401E044F4401453
:104EF0007278824202D1761C04F58014761C3078D8
:104F000066280BD013DC582877D009DC002875D030
:104F10004528F6D04628F4D047281AD19FE118E05A
:104F2000632835D0642879D0652812D197E170289C
:104F300073D008DC6728F1D069286FD06E280DD0B7
:104F40006F2806D1B5E073282CD0752875D0782845
:104F500074D05A46179990476D1C76E1C4F30250FD
:104F6000022809D003280DD0D9F8001004280DD04C
:104F70000D6009F1040968E1D9F80010EA17C1E9E8
:104F80000052F6E7D9F800100D80F2E70D70F0E757
:104F900019F8041B8DF8001000208DF80100EA4676
:104FA000012003E059F804AB4FF0FF3061074FF0E8
:104FB000000102D40DE008F101018846B9420FDA80
:104FC0008045F8DB1AF808100029F4D108E008F150
:104FD000010188468142FADB1AF808100029F6D14F
:104FE00005985B46A0EB080721463846179A00F063
:104FF0009EFA284400EB080507E04DE02BE10DE0A8
:105000001AF8010B5A4617999047B8F10108F7D2E0
:105010005B4621463846179A14E142E00A22009284
:10502000C4F302524FF0000A022A08D059F804CB08
:10503000032A4FEAEC710AD00DE029E02AE009F1D9
:10504000070121F00702F2E802C1914609E00FFAD8
:105050008CFC4FEAEC71042A03D14FFA8CFC4FEA26
:10506000EC71002907DA0A460021DCF1000C61EB43
:1050700002012D2202E0220504D52B228DF8042006
:10508000012203E0E20701D02022F7E7904653E037
:105090000A2102E010220DE010214FF0000A0091D9
:1050A0000BE010224FF0000A44F00404082700929D
:1050B00003E008224FF0000A0092C4F30252022AD1
:1050C00005D059F804CB0021032A08D009E009F1E2
:1050D000070121F00702F2E802C1914605E01FFA3C
:1050E0008CFC042A01D10CF0FF0C4FF000082207C1
:1050F00022D5702827D0009B83F0100353EA0A03BF
:1051000009D15CEA010206D030228DF804208DF826
:10511000050002229046009B83F0080353EA0A032D
:105120000AD15CEA010201D1620705D530228DF86F
:1051300004204FF001087F1E582809D037A00390A3
:105140000EA8029013E040228DF804200122E1E72E
:1051500037A0F4E753466046009AFEF7D5FF844631
:105160000398825C0298A0F10100029002705CEA50
:105170000100EFD1029806A9A1EB000000F1200A7E
:10518000600702D524F4803400E00127574502DD92
:10519000A7EB0A0000E0002000EB0A010090059850
:1051A0004144A0EB01000590E00306D45B46214694
:1051B000179A059800F0BBF90544002706E001A8FE
:1051C0005A46C05D179990476D1C7F1C4745F6DB1A
:1051D000E0030CD55B462146179A059800F0A7F925
:1051E000054404E030205A46179990476D1C0099F9
:1051F000481E00900029F5DC08E0029802995A4602
:105200000078491C0291179990476D1CBAF1000172
:10521000AAF1010AF1DC6BE10928010030313233D7
:1052200034353637383961626364656600000000E2
:1052300030313233343536373839414243444546CC
:105240000000000000F060F9054406F10106307826
:1052500000287FF4E9AD19B02846BDE8F08F620759
:1052600000D4062709F1070222F0070CFCE802230C
:10527000E14603F000485FEA080C02D00FF27C2CF4
:105280000DE05FEA045C02D50FF2742C07E05FEAE0
:10529000C47C02D00FF26C2C01E0AFF2700C4FF026
:1052A000FF3823F00043CDF850C065280CD006DC51
:1052B000452809D046281DD047283ED13EE0662823
:1052C00018D0672839D139E00021112F01DB1120D6
:1052D00000E0781CCDE9000106A90EA8FFF7CAFC82
:1052E000DDE90F010E9A03910021009207F1010AF6
:1052F00004914EE04FF000400097CDE9011006A95F
:105300000EA8FFF7B7FCDDE90F0203920E9B11997F
:105310000022DDF80CA00093049219B907F10101F5
:1053200000EB010AB7EB0A0004D4C0F1FF3007F12B
:10533000010A0490AAEB0700019046E0012F00DA71
:1053400001270021112F01DD112000E03846CDE9B1
:10535000000106A90EA8FFF78DFCDDE90F010E9AEA
:105360000391002104910092BA4621070CD40399BD
:10537000514500DA8A46BAF1010F05DD009AAAF11B
:105380000101515C302908D0B84202DA10F1040F53
:1053900006DA0121CDE9011017E0AAF10101E9E7E0
:1053A000002805DC049901440491AAEB000102E005
:1053B000411C514500DD8A460499A0EB010000F133
:1053C000010001904FF000400290200704D40198A2
:1053D000504501DBCDF8048000208DF84F00029885
:1053E0000DF14F07B0F1004F25D02B200E90029801
:1053F0004FF0020800280CDA404202902D200E9057
:1054000007E00A210298FEF769FE3031029007F8A2
:10541000011DB8F10001A8F10108F2DC0298002892
:10542000EFD1791E0E980870307800F0200040F01F
:10543000450007F8020D12A8A0EB070000F10708CD
:105440001498007800B1012000EB0A01019801EBEB
:10545000E07105984144A0EB0100A0F10100059026
:10546000E00306D45B462146179A059800F05FF8E2
:1054700005441498007820B15A461799904705F1D1
:105480000105E00323D55B462146179A059800F0F5
:105490004EF805441BE00498002807DBDDE9030112
:1054A000884203DD0098405C179901E0179930208D
:1054B0005A46904704986D1C401C04900198401E69
:1054C000019004D12E205A46179990476D1CBAF1CD
:1054D0000001AAF1010ADEDC05E017F8010B5A46CB
:1054E000179990476D1CB8F10001A8F10108F4DC90
:1054F0005B462146179A0598A4E600002D0000009F
:105500002B000000200000002DE9F041044600259A
:105510001E461746880405D406E039462020B047C9
:1055200005F10105641EF8D52846BDE8F0812DE996
:10553000F041044600251E469046C80301D5302799
:1055400000E02027880405D506E041463846B047EC
:1055500005F10105641EF8D52846BDE8F08110B5B7
:1055600041EC100BFEF7ACFF51EC100B10BD00002E
:1055700008480068C0010BD507480068C00707D07D
:10558000054880380068002802DA044901200870C4
:1055900070470000FCED00E0800E00E08E0000206F
:1055A0004FF06042D36F002BFCD0C36AD367D36F38
:1055B000002BFCD0C07840EA0120A2F87C007047A4
:1055C0004FF06041CA6F002AFCD081F87C00704720
:1055D00041EC100B82B010EE900A8DED000B20F024
:1055E000004001909DED000B02B051EC100B704794
:1055F00070B504000D4603D012B92078012801D0FF
:10560000802070BD204600F02BFB28B129462046A3
:1056100000F040F8002070BD812070BD02460848AF
:1056200010B500EB810050F8040C002806D011469C
:1056300000F06AFCBDE8104000F056BC10BD000050
:10564000141B001010B504468089002821D0608901
:1056500004EB8000006908606078022805D1002111
:10566000204600F051FC00F03FFC04F10C0000BFAC
:10567000D0E85F1F491EC0E8521F002AF8D1608998
:10568000401C80B26081E189884201D100206081A4
:10569000042010BD10B500F037FCBDE8104000F04C
:1056A00023BC10B5002100F02FFCBDE8104000F035
:1056B0001BBC0000EFF3058109B182207047DFF8C1
:1056C00008C000DF7047000089640008EFF305821E
:1056D0000AB182207047EFF31482144B12F00302D8
:1056E00006D0012A1BD0022A11D0032A19D113E0B7
:1056F000EFF3088282F309881A78D2070AD00222CF
:1057000082F31488BFF34F8FBFF36F8F09E01A78CD
:10571000D20706D10322F3E71A78D20701D0FF207F
:105720007047DFF80CC000DF70470000FC6700081E
:105730009D6400082DE90E40EFF30582B2B102002E
:105740004FF0800000D021B10090DDE9011203B0DC
:1057500000BD11780129F7D101A91046FFF772FFAA
:10576000042801D00020EFE71020EDE7DFF804C0A7
:1057700000DFECE795650008EFF305820AB1002031
:105780007047DFF808C000DF70470000CF650008F1
:105790002DE91040EFF3058159B100F0FBF98021AC
:1057A00028B10278022A02D1FFF77BFF00210846C8
:1057B00010BDDFF808C000DF10BD0000F365000871
:1057C000EFF3058212B14FF0FF307047DFF804C0ED
:1057D00000DF70470D6600082DE97040EFF3058289
:1057E00072B10C4600F08AFD4FF0004530B1210C3B
:1057F00004D1058BC178A0B2FFF710FF284670BD19
:10580000DFF804C000DF70BD43660008EFF30583D6
:105810000BB182207047DFF808C000DF704700003E
:1058200069660008EFF305820AB100207047DFF8CF
:1058300008C000DF70470000BD660008DFF80CC03C
:1058400000DFDFF80CC000DFFEE700002D67000876
:1058500049670008EFF3058008B100207047DFF8C2
:1058600008C000DF704700002D670008DFF804C0A3
:1058700000DF704781670008094C4FF0FF3529466B
:105880002068FFF757FF02460846102AF7D1FFF7B6
:10589000EDFF0028F3D0024608469047EFE70000EE
:1058A000200000204FEA000151E8000F28B10368F2
:1058B00041E80032002AF7D17047BFF32F8F7047BD
:1058C00010B568B161B10B3121F003020168446881
:1058D0000B1A1B1B934205D2084609680029F5D113
:1058E000002010BD3CB121180368C1E900320160FD
:1058F00001F1080010BD4260083010BD70B50C46C3
:10590000002812D04FF6FF71084D884204D22A6851
:105910000146104600F024FB28684470044800F05B
:1059200025F9BDE8704000F017BC70BD8000002074
:105930003C0300200F4810B50D4942680E480B6823
:105940000088934204D00A60CB88421E1A448A80A1
:105950008A8882420AD100200860064800F006F9D1
:105960000146BDE81040034800F028BB10BD000010
:10597000900000203C0300208C00002070B5194DE1
:10598000E86800282CD0A88A401EA882002621E0C2
:10599000A06838B161684160606810B1A168816039
:1059A0006660A6600F482146183800F007FBA08A01
:1059B000A8826078042804D10B49E08A0988084449
:1059C000A08201206070E068E860E06808B10561CD
:1059D000E6602661A88A002802D1EC68002CD7D1A5
:1059E00070BD0000540300208C00002070B504003E
:1059F0000FD00D4DA17801262868827891420CD9EC
:105A000000F0F8FA286846702046BDE8704000F0C3
:105A1000A3BB064800F0AAF8F7E766702146BDE888
:105A20007040024800F0CABA800000203C03002009
:105A30000321FFF763BF000010B50446008B084345
:105A400020836278618B062A18D0052A19D1084272
:105A500017D001EA0002628388432083204600F0C9
:105A6000E9FA01206070628B0821204600F0DAFA22
:105A70002146BDE81040034800F0A0BA31EA000218
:105A8000EAD010BD3C0300200246154810B500EBDB
:105A9000810050F8044C002C21D0208B104320832F
:105AA0006278618B062A17D0052A18D1084216D0D1
:105AB00001EA0002628388432083204600F0BAFA9C
:105AC00001206070628B0821204600F0ABFA20466E
:105AD000BDE81040FFF78ABF31EA0002EBD010BDED
