:020000040800F2
:100000008005002011050008190500081B050008DF
:100010001D0500081F05000821050008000000005C
:1000200000000000000000000000000009020008BD
:100030002505000800000000AD0200080D030008BF
:100040002B0500082B0500082B0500082B050008D0
:100050002B0500082B0500083D0500082B050008AE
:100060002B0500082B0500082B0500082B050008B0
:100070002B0500082B0500082B0500082B050008A0
:100080002B0500082B0500082B0500082B05000890
:100090002B0500082B0500082B0500082B05000880
:1000A0002B0500082B0500082B0500082B05000870
:1000B0002B0500082B0500082B0500082B05000860
:1000C0002B0500082B0500082B0500082B05000850
:1000D0002B0500082B0500082B0500082B05000840
:1000E0002B0500082B0500082B0500082B05000830
:1000F0002B0500082B0500082B0500082B05000820
:100100002B0500082B0500082B0500082B0500080F
:100110002B0500082B0500082B0500082B050008FF
:10012000E11200082B0500082B0500082B0500082C
:100130002B0500082B0500082B0500082B050008DF
:100140002B0500082B0500082B0500082B050008CF
:100150002B0500082B0500082B0500082B050008BF
:100160002B0500082B0500082B0500082B050008AF
:100170002B0500082B0500082B0500082B0500089F
:100180002B0500082B050008DFF814D003F0BEF89B
:100190000021024804F002FAFEE70000B857000808
:1001A0008005002080F309887047684680F309883D
:1001B00004480078C00714BF0220032080F314888D
:1001C0007047000080570008DFF818C0EFF3058380
:1001D0001B0618BF6047EFF31483DB0708BF6047B7
:1001E00000DF70478D470008DFF818C0EFF3058384
:1001F0001B0618BF6047EFF31483DB0708BF604797
:1002000000DF7047054A0008EFF30980816911F8A3
:10021000021C002933D190E80F1010B5E047BDE86B
:100220001040EFF3098C8CE807001D4B93E80600A3
:10023000914208BF704781B11EF0100F06BF2CED30
:10024000108A0120002081F820002CE9F00FC1F86D
:1002500024C00CB404F0DEFE0CBC1A60D2F824C03A
:10026000BCE8F00F92F8200000281ABFBCEC108AFE
:100270006FF0120E6FF0020E8CF30988704710B504
:10028000084A1268914209D8074C54F8214090E876
:100290000F10A047EFF3098C8CE80F0010BD000091
:1002A00088000020503300085033000810B504F0D7
:1002B0004FFDBDE81040174B93E80600914208BF80
:1002C0007047EFF3098C1EF0100F06BF2CED108A5B
:1002D0000120002081F820002CE9F00FC1F824C093
:1002E0000CB404F097FE0CBC1A60D2F824C0BCE831
:1002F000F00F92F8200000281ABFBCEC108A6FF0B3
:10030000120E6FF0020E8CF30988704710B504F0DE
:1003100047FFCEE78800002000210020714A1268C4
:1003200042F480326F4B1A6000BF6E4A126802F4CA
:100330000030491C10B9B1F5A06FF6D1694A1268B6
:1003400012F4003F01D0012000E00020012845D137
:10035000644A4032126842F08052624B40331A6065
:10036000614A126842F480425F4B1A605D4A08326B
:1003700012685C4B08331A601A46126842F4004255
:100380001A601A46126842F4A0521A60574A1B1F9C
:100390001A601A1F126842F080721B1F1A6000BF99
:1003A000504A126812F0007FFAD040F20562504BBA
:1003B0001A604C4A0832126822F00302494B083393
:1003C0001A601A46126842F002021A6000BF454ADB
:1003D0000832126802F00C02082AF8D1704710B5F2
:1003E0004448006840F47000424908603D48006895
:1003F00040F001003B49086000203A49083108609C
:10040000384800683C490840364908603B48091DA7
:100410000860081F006820F48020091F0860002081
:1004200030490C310860FFF777FF4FF00060314929
:100430008039086010BD70B500200022022300241E
:100440000221284D08352D6805F00C0020B1042844
:1004500006D0082834D107E0294D2A4E356033E014
:10046000294D284E35602FE01E4D2D1D2D68C5F3FA
:1004700080541C4D2D1D2D6805F03F0154B1224DB7
:10048000B5FBF1F5174E361D3668C6F3881605FB29
:1004900006F209E01A4DB5FBF1F5124E361D36682D
:1004A000C6F3881605FB06F20E4D2D1D2D68C5F30B
:1004B00001456D1C6B00B2FBF3F5124E356003E095
:1004C0000F4D104E356000BF00BF064D08352D683A
:1004D000C5F303150D4E705D0A4D2D68C540094EDC
:1004E000356070BD0038024000700040085440077D
:1004F000003C024088ED00E0FFFFF6FE10300024D3
:100500000024F4000000002000127A000400002003
:100510000648804706480047FEE7FEE7FEE7FEE79D
:10052000FEE7FEE7FEE7FEE7FEE7FEE7DF03000883
:100530008901000800BFFEE700BFFEE710B50120FB
:1005400001F0FCFC01213A48006804F0ADF810BD50
:1005500092B004F0DBF83649086000F074FA00F05D
:10056000E2F900F091FC00F077FD4FF0FF313148E7
:10057000006804F08DF84FF0FF312F48006804F058
:1005800087F82E4903C9CDE90B010DA80C90002274
:1005900001210BA804F0CCF805462849083103C90D
:1005A000CDE9040106A805900022012104A804F069
:1005B000BFF806463221284604F0C6F832213046FC
:1005C00004F0C2F800241B48006804F049F82EE04B
:1005D0004FF0FF31012004F081F801AB07C314B1E3
:1005E000012C23D111E04FF0FF311248006804F0D4
:1005F0004FF800F045F81048006804F031F8012485
:100600000E48103002F0A6FE10E04FF0FF310A480D
:10061000006804F03DF800F033F80648006804F084
:100620001FF8002406A002F095FE00BF00BFCFE730
:10063000240000204C00002070000020C857000853
:10064000585858585858585858585858585858582A
:10065000585858585858585858585858585858581A
:10066000585858585858585858585858585858580A
:100670005858585858585858585858580A00000050
:1006800008B502223921684600F017FB08BD1FB5E6
:100690000720009001222221684600F048FA0F202E
:1006A000009001223C21684600F041FA00200090B1
:1006B00001223D21684600F03AFA0121880301F049
:1006C00047FF0021042002F045FA0120029000209B
:1006D0008DF80C0008208DF80D0001208DF80E001B
:1006E00002A801F0C9FB06208DF8040000208DF857
:1006F000050001208DF806008DF8070001A800F024
:100700003EFFFFF7BDFF1FBD0EB540208DF8040072
:1007100000208DF8050007208DF8060000208DF8D8
:1007200007008DF8080001A800F0B1FA40208DF80C
:10073000000010208DF8010000208DF802006846AE
:1007400000F0F9FAFFF7A3FF0EBD01681E39016042
:1007500041680E39416081682431816040F2D532B0
:1007600001685143016041685143416081685143D0
:100770008160121D016891FBF2F10160521C416819
:1007800091FBF2F141604FF47C72816891FBF2F1D0
:100790008160704710B50446204600F034FB2046C7
:1007A000FFF7D3FF10BD0246002008E012F810301A
:1007B0005BB203EBC3035B000B60091D401C032805
:1007C000F4DB704710B52DED0C8B494801F036F87D
:1007D00000BF0221464801F03CF90028F9D002216F
:1007E000434801F04DF94249C86C02F084FB41ECEA
:1007F000100BB0EE40DAF0EE60DA9FED3E0B53ECFA
:10080000102B51EC1D0B02F084FA41EC100BB0EEF2
:1008100040CAF0EE60CA9FED390B53EC102B51EC3F
:100820001C0B02F0E8FA41EC100BB0EE40BAF0EE0F
:1008300060BA9FED340B53EC102B51EC1B0B02F004
:1008400062FA41EC100BB0EE40AAF0EE60AA9FED08
:100850002F0B53EC102B51EC1A0B02F0CCFA41EC9D
:10086000100BB0EE409AF0EE609A9FED2A0B53EC1D
:10087000102B51EC190B02F0A5F941EC100BB0EE66
:10088000408AF0EE608A51EC180B02F07DFB00EE1E
:10089000100ABDEC0C8B10BD00B58BB00121080215
:1008A00001F056FE0020019002900390049001A8F0
:1008B00000F00CFF002005908DF818008DF819004D
:1008C0000790099001208DF8280005A9084800F03C
:1008D000CEFE012000F034FF0121054800F012FF98
:1008E000072301221021024800F04CFF0BB000BD8D
:1008F00000200140000000000070A7400000000040
:100900000000B0400000000000C087400000000070
:100910000000044000000000000039400E4800695B
:1009200000F0010070471CB50121084601F0CCFD24
:100930000120009000208DF8040002208DF80500B1
:1009400000208DF8060002208DF807006946024855
:1009500001F080FB1CBD0000000002401149096845
:1009600011F0010F0ED00F498039096811F0010F05
:1009700008D000BF4FF0604109680029FAD04FF05D
:1009800060421070704770B504460D462046FFF770
:10099000E5FF70BD10B504462046FFF7DFFF10BD30
:1009A00000BFFEE7800E00E030B5012806D1324CD2
:1009B000248844F48054304D2C8007E02E4CA41C35
:1009C000248844F480542C4DAD1C2C80012906D180
:1009D000294C248844F40054274D2C8007E0264CF1
:1009E000A41C248844F40054234DAD1C2C80012AFF
:1009F00006D1214C248844F480441F4D2C8007E00C
:100A00001D4CA41C248844F480441B4DAD1C2C8038
:100A1000012B06D1184C248844F40044164D2C8038
:100A200007E0154CA41C248844F40044124DAD1C6E
:100A30002C8030BD10B50446234622462146204670
:100A4000FFF7B2FF10BD1CB50121082001F03CFDED
:100A50004FF47040009001208DF8040002208DF8C2
:100A6000050000208DF806008DF807006946024851
:100A7000183801F0EFFA1CBD180C0240F0EE400AE5
:100A800090ED061A31EE201A416900EB8101D1ED9B
:100A9000001A31EE611AB0EE410A80ED060A416992
:100AA00000EB8101C1ED000A4169491C052291FB5F
:100AB000F2F302FB13114161B1EE041AC0EE011A08
:100AC000B0EE610A7047000000BFFEE710B50446B3
:100AD0004FF48050E849086007E0E7490868411E84
:100AE000E54A116008B9FFF7EFFF0221E34801F082
:100AF000E8FF0028F1D02146E04801F0ABFF4FF4B9
:100B00008050DD49086007E0DB490868411EDA4A89
:100B1000116008B9FFF7D8FF0121D84801F0D1FFD3
:100B20000028F1D0D54801F092FFC0B210BD70B5D9
:100B300005460E461446012C01DD46F0400608210C
:100B4000CF4801F0FDFA3046FFF7C0FF05E02878F6
:100B5000FFF7BCFF601E84B26D1C012CF7DA082180
:100B6000C74801F0EBFA70BD00B587B0012108035A
:100B700001F0EEFC0121084601F0A6FC0121102045
:100B800001F0A2FC0121102001F09EFC01211020A7
:100B900001F09AFC05221146BA4801F0DEFA05225E
:100BA0000621B84801F0D9FA05220721B54801F01D
:100BB000D4FA02208DF8180000208DF81A000220C7
:100BC0008DF81B008DF819002020059005A9AD486F
:100BD00001F040FA8020059005A9AA4801F03AFAF0
:100BE0004020059005A9A74801F034FAA34801F078
:100BF000A9FD0020ADF80000ADF80400ADF8060036
:100C0000ADF808004FF40070ADF80A000820ADF808
:100C10000C000020ADF80E000720ADF810004FF4D6
:100C20008270ADF802006946944801F0B1FD0121DF
:100C3000924801F08EFE0820059001208DF81800E2
:100C400000208DF81A0002208DF8190005A98C48A3
:100C500001F000FA08218A4801F070FA012005909D
:100C600000208DF818008DF81A0002208DF8190068
:100C700000208DF81B0005A9814801F0EBF9022046
:100C8000059005A97E4801F0E5F907B000BD38B52B
:100C9000044600200090FFF767FF60782178084342
:100CA000E178084321790843A178084300900122A4
:100CB00020216846FFF73BFF38BD70B506460C465D
:100CC0001546012D02DD44F0C00401E044F080042B
:100CD00008216B4801F034FA2046FFF7F7FE06E0E2
:100CE0000020FFF7F3FE3070681E85B2761C002DE1
:100CF000F6DC0821624801F021FA70BD38B50446DF
:100D000000200090012221216846FFF7D6FF9DF8C0
:100D1000000000F0D0000090207861780843A178AE
:100D200008439DF8001008430090012221216846E5
:100D3000FFF7FDFE38BD38B50446002000900122C3
:100D400038216846FFF7B9FF207861780843A17819
:100D500008430090012238216846FFF7E8FE38BDBD
:100D600038B50446012220216846FFF7A6FF9DF80A
:100D7000000000F0BF0000909DF8000020430090AC
:100D8000012220216846FFF7D2FE38BD38B504465F
:100D9000012220216846FFF790FF9DF8000000F037
:100DA0007F0000909DF80000204300900122202148
:100DB0006846FFF7BCFE38BD38B504460122202145
:100DC0006846FFF77AFF9DF8000000F0DF00009012
:100DD0009DF8000020430090012220216846FFF783
:100DE000A6FE38BD08B5012221216846FFF765FF40
:100DF0009DF8000040F0400000900122212168464B
:100E0000FFF795FE08BD3EB50546002401222021CE
:100E10006846FFF752FF0622292101A8FFF74DFF80
:100E20009DF8000010F0200002D0202820D10FE013
:100E300000240AE001A911F8140040B200EBC00040
:100E4000400028602D1D601CC4B2032CF2DB10E0B2
:100E500000240AE001A911F8140040B200EBC00020
:100E6000C00028602D1D601CC4B2032CF2DB00E022
:100E700000BF00BF3EBD0000300000200030014038
:100E8000001002400000024010B5FFF705FD0121EF
:100E9000614803F0D9FB6149086010BD10B52DED24
:100EA000068B5F48007810B1012856D150E05D48AC
:100EB00090ED000AF0EE000A30EE600A10EE101A13
:100EC000084602F025F841EC100BB0EE40AAF0EE17
:100ED00060AA9FED551B02F0CBFCB0EE409AF0EEFD
:100EE000609A51EC190B02F04FF808EE100AB0EEC0
:100EF000000AB4EEC08AF1EE10FA06D200231A46B8
:100F000019460120FFF750FD21E0B1EE000AB4EED2
:100F1000C08AF1EE10FA06D200231A4601210846D3
:100F2000FFF742FD13E0B1EE080AB4EEC08AF1EE1D
:100F300010FA06D20023012211461046FFF734FDB5
:100F400005E001231A4619461846FFF72DFD04E077
:100F500037480078FFF76EFD00BF00BFBDEC068B81
:100F600010BD10B52DED028B04462D48007810B150
:100F7000012820D10AE0FFF725FCB0EE408A2D4879
:100F8000FFF77CFD274880ED000A14E02A4800683E
:100F900028B129480068401E274908600AE014204B
:100FA000254908602248007808B9012000E00020A7
:100FB0001F49087000BF00BF00211848006803F0F7
:100FC00067FB30B31DA002F0C5F92248006888B95C
:100FD000FFF7A4FC70B101201E490860104800789A
:100FE00008B9012000E000200D49087014201249C2
:100FF000086008E01748006828B1FFF78FFC10B9B7
:10100000002014490860FFF749FF0448006803F016
:1010100027FBBDEC028B10BD205800084C000020BF
:1010200034000020380000200000000000002040B4
:1010300035000020A40000203C00002054454D5005
:1010400020484153205448452053454D4150484F76
:1010500052450A004000002010B5FFF755FB00F094
:1010600033FA0121F34803F0EFFAF349086010BDA9
:1010700010B52DED108B86B00446206801F02AFFD4
:1010800041EC100BB0EE409AF0EE609A606801F00F
:1010900021FF41EC100BB0EE40AAF0EE60AAA06870
:1010A00001F018FF41EC100BB0EE408AF0EE608AC0
:1010B00053EC182B51EC180B01F02BFE41EC100BEC
:1010C0008DED020B53EC1A2B51EC1A0B01F021FEA3
:1010D00041EC100B8DED000B9DED020B53EC102B32
:1010E0009DED000B51EC100B01F06CFD41EC100B71
:1010F000B0EE40FAF0EE60FA02F04EFC8DED040B1B
:101100009DED041BB0EE490AF0EE690A02F0C0FA48
:10111000B0EE40EAF0EE60EA9FEDC80B53EC102B06
:1011200051EC1E0B01F0F5FD41EC100BB0EE40DA76
:10113000F0EE60DA9FEDC30B53EC102B51EC1D0B5E
:1011400001F059FE41EC100BB0EE40BAF0EE60BA7F
:1011500053EC182B51EC180B01F0DBFD41EC100B9C
:101160008DED020B53EC192B51EC190B01F0D1FD55
:1011700041EC100B8DED000B9DED020B53EC102B91
:101180009DED000B51EC100B01F01CFD41EC100B20
:10119000B0EE40FAF0EE60FA02F0FEFBB0EE40EA8C
:1011A000F0EE60EAB0EE4E1AF0EE6E1AB0EE4A0AB9
:1011B000F0EE6A0A02F06CFAB0EE40DAF0EE60DAB5
:1011C0009FED9E0B53EC102B51EC1D0B01F0A1FD7C
:1011D00041EC100B8DED040B9FED9A0B53EC102B93
:1011E0009DED040B51EC100B01F005FE41EC100BD2
:1011F000B0EE40CAF0EE60CA9FED940B53EC102B9A
:1012000051EC180B01F098FE5FD29FED900B53EC60
:10121000102B51EC190B01F0A3FE0ED253EC1B2B3B
:101220009FED860B51EC100B01F06DFD41EC100BA6
:10123000B0EE40BAF0EE60BA17E051EC1B0B81F053
:10124000004141EC100BB0EE40DAF0EE60DA9FEDB9
:101250007B0B53EC102B51EC1D0B01F054FD41ECBA
:10126000100BB0EE40BAF0EE60BA9FED780B53EC85
:10127000102B51EC1A0B01F073FE0ED253EC1C2B09
:101280009FED6E0B51EC100B01F03DFD41EC100B8E
:10129000B0EE40CAF0EE60CA17E051EC1C0B81F0D2
:1012A000004141EC100BB0EE40DAF0EE60DA9FED59
:1012B000630B53EC102B51EC1D0B01F024FD41ECA2
:1012C000100BB0EE40CAF0EE60CA8DED00CB53ECCF
:1012D0001B2B60A002F03EF806B0BDEC108B10BDD9
:1012E00010B56249624800F06CFD00B30821614806
:1012F00000F024FF60495E4800F032FD4FF0C0511D
:101300005B48483000F02CFD5849594800F082FDF8
:1013100057480068564908605548483000685449A5
:101320004831086001215548006803F0BDF910BD3F
:1013300010B508214F4800F003FF51484C490C31CB
:10134000086050484A495431086007204849091D3F
:10135000086047494C3108604548006840F001008A
:101360004349086042484830006840F00100404965
:101370004831086010BD4448007810B1012802D1FE
:1013800000E000E000BF00BF70473EB5044603F038
:10139000BDF93A4908603C48007810B101281CD1D9
:1013A00017E03AA001F0D6FFFFF7C2FF4FF0FF3180
:1013B000012003F093F98DE8070037493048401CBD
:1013C000FFF7F1F93448FFF7C0F93348FFF750FE53
:1013D00003E032A001F0BEFF00BF00BF00211648AD
:1013E000006803F055F918B330A001F0B3FF354899
:1013F000006870B9FFF792FA58B1012031490860CE
:101400002148007808B9012000E000201E4908703A
:1014100008E02C48006828B1FFF780FA10B90020D6
:1014200028490860FFF7A7FF0348006803F018F990
:101430003EBD00002458000870000020000000009D
:1014400000806640F1D4C853FB2109400000000031
:1014500000000000526F6C6C3A2025662C20506909
:101460007463683A2025660A00000000208000109E
:101470001064024000100240200000105C000020B8
:10148000600000205000002057000020414E474CD3
:1014900045204D4F44450A00140100204D4F54494A
:1014A0004F4E204D4F44450A000000004143432069
:1014B000484153205448452053454D4150484F52D0
:1014C000450A00005800002000B591B000212748CF
:1014D00000F0CEFB00212548483000F0C9FB23482E
:1014E00000F0EAFA2148483000F0E6FA01218805C8
:1014F00000F0EAFF4FF0C06002901D48039000200A
:1015000007904FF480600890002009900A900B909B
:101510004FF400300C9000200D900E900F90109022
:10152000059002A9114800F069FB4020059002A92E
:101530000E48483000F062FB012203210C480C38B1
:1015400001F0A6FA38208DF8040001208DF805007E
:101550008DF806008DF8070001A800F010F80122B0
:101560001021024800F010FC11B000BD10640240D0
:101570000C30014033490143334A1160704770B564
:10158000002100230F22C47824B32F4C246804F4D4
:10159000E064C4F5E064C4F30721C1F10404E3B2DC
:1015A0000A4144789C40E1B28478144021430C07FE
:1015B000210E264C05786155047804F01F0501249E
:1015C000AC4005786D114FF0E02606EB8505C5F8B7
:1015D000004109E0047804F01F040125A5401C4CDB
:1015E0000678761144F8265070BD1A4A0A40024324
:1015F000154B1B1F1A60704739B1134A121D126830
:101600000243114B1B1D1A6006E00F4A121D12689F
:1016100082430D4B1B1D1A607047042808D14FF000
:10162000E021096941F004014FF0E022116107E077
:101630004FF0E021096921F004014FF0E02211612F
:10164000704700000000FA050CED00E000E400E047
:1016500080E100E080FFFF1F10B50121080200F0CB
:10166000DFFF00214FF4807000F0DAFF10BD30B5CD
:101670000246002000235068F94C20400D790C6888
:1016800044EA0524204350609068F64C2040D1E99C
:1016900003542C438D682C434D7944EA4504204380
:1016A0009060D06A20F470000C7D641EE4B2234385
:1016B00040EA0350D06230BD0021016001714171E8
:1016C0008160C16001610121017570470021E64A16
:1016D0001168E64A01EA0201D0E9002342EA030266
:1016E000836842EA0302C36842EA030242EA010154
:1016F000DF4AC2F804137047002101604160816035
:10170000C160704721B1826842F00102826003E04B
:10171000826822F00102826070470A460021416817
:10172000D44B194011434160704741628262704757
:101730000A460021416821F01F01114341607047B2
:1017400038B1C949096841F40001C94AC2F8041313
:1017500006E0C549096821F40001C54AC2F804132E
:10176000704738B1C049096841F48001C04AC2F8E5
:10177000041306E0BC49096821F48001BC4AC2F8A0
:1017800004137047F0B504460D4600200021092DD2
:1017900011DDE068A5F10A0606EB4607072606FA02
:1017A00007F18843A5F10A0606EB460603FA06F19F
:1017B0000843E0600CE0206905EB4507072606FAC0
:1017C00007F1884305EB450603FA06F1084320615B
:1017D000072A0FDA606B561E06EB86071F2606FAED
:1017E00007F18843561E06EB860605FA06F1084304
:1017F000606322E00D2A0FDA206BD61F06EB860706
:101800001F2606FA07F18843D61F06EB860605FA5F
:1018100006F10843206310E0E06AA2F10D0606EB32
:1018200086071F2606FA07F18843A2F10D0606EB8C
:10183000860605FA06F10843E062F0BD816841F0D2
:10184000804181607047014600208A6812F4800F51
:1018500001D0012000E00020704721B1826842F4ED
:101860008062826003E0826822F480628260704756
:1018700021B1826842F00202826003E0826822F0B5
:1018800002028260704710B50A46002100234168B9
:1018900021F46041531E41EA4331416010BD21B142
:1018A000426842F40062426003E0426822F400624F
:1018B000426070470146C86C80B270476E4800684D
:1018C000704721B1826842F48072826003E08268CE
:1018D00022F480728260704721B1826842F4007203
:1018E000826003E0826822F400728260704738B13F
:1018F0005D49096841F400515D4AC2F8041306E0ED
:101900005949096821F40051594AC2F80413704733
:10191000F0B504461546002000220026092911DDF5
:10192000E068A1F10A0707EB470C072707FA0CF25A
:101930009043A1F10A0707EB470703FA07F21043A8
:10194000E0600CE0206901EB410C072707FA0CF27C
:10195000904301EB410703FA07F210432061A06BAB
:10196000C0F30156EF1C06F1010CA7EB0C0707EBC7
:10197000870C1F2707FA0CF29043EF1C06F1010CAD
:10198000A7EB0C0707EB870701FA07F21043A063E8
:10199000F0BD10B50A4600210023816B21F44011EF
:1019A000531E41EA0351816310BD10B50023034665
:1019B0000B441A6010BD0A460021816821F4702191
:1019C0001143816070470A460021816821F440116B
:1019D000114381607047816841F4800181607047E4
:1019E000014600208A6812F4800F01D0012000E037
:1019F0000020704721B1426842F48062426003E0F7
:101A0000426822F480624260704721B1426842F429
:101A10008052426003E0426822F480524260704784
:101A200002460023134601F128000344186880B2DF
:101A3000704710B50B460021D9B2012404FA01F118
:101A40001AB144680C43446002E044688C4344602B
:101A500010BD0246002013680B420FD001200EE09B
:101A6000FFFEFFFCFDF7FFC004230140E030FCFF58
:101A700000200140FFFD3FFF082301400020704788
:101A8000CA430260704770B502460020002300245C
:101A90000B12556801268E4005EA060415681D42A2
:101AA00002D00CB1012000E0002070BD00220A121B
:101AB000D343036070470000016821F00101016019
:101AC0000021016041608160C160016121214161AB
:101AD000DA49884204D13D21D84A103A91608CE01D
:101AE000D6491831884205D14FF47461D34A103A6F
:101AF000916082E0D1493031884205D14FF47411B0
:101B0000CE4A103A916078E0CC494831884205D1FC
:101B10004FF07461C94A103A91606EE0C749603174
:101B2000884204D1C649C54A103AD16065E0C3492C
:101B30007831884204D1C349C04A103AD1605CE090
:101B4000BE499031884204D1BF49BC4A103AD160A5
:101B500053E0BA49A831884205D14FF03D51B74A08
:101B6000103AD16049E0B949884204D13D21B74AD1
:101B7000083A116041E0B5491831884205D14FF467
:101B80007461B24A083A116037E0B0493031884296
:101B900005D14FF47411AD4A083A11602DE0AB49FC
:101BA0004831884205D14FF07461A84A083A116063
:101BB00023E0A6496031884204D1A149A34A121FFB
:101BC00011601AE0A1497831884204D19D499F4AA9
:101BD000121F116011E09D499031884204D19A4949
:101BE0009A4A121F116008E09849A831884204D12E
:101BF0004FF03D51954A121F1160704710B50022F9
:101C00000268934B1A40CC680B6823434C6923430A
:101C10008C692343CC6923430C6A23434C6A2343D6
:101C20008C6A23434C6B23438C6B23431A4302601F
:101C3000426922F00702D1E90B3423431A4342617F
:101C40000B6943604B6883608B68C36010BD0021E3
:101C5000016041608160C160016141618161C16178
:101C6000016241628162C1620163416381637047C5
:101C700021B1026842F00102026003E0026822F032
:101C800001020260704721B1026842F40042026022
:101C900003E0026822F400420260704721B102684A
:101CA00042F02002026003E0026822F0200202609B
:101CB0007047416070470146486880B2704722B162
:101CC000036843F40023036003E0036823F4002364
:101CD00003600161704721B1026842F48022026012
:101CE00003E0026822F48022026070470AB10161B9
:101CF00000E0C1607047014600200A6812F4002F1E
:101D000001D0012000E000207047014600200A6851
:101D100012F0010F01D0012000E0002070470146C1
:101D200000204A6902F03800704730B503460A4681
:101D300000200024454DAB4202D24049103901E059
:101D40004249103912F0005F01D04C6800E00C6885
:101D5000404D2C40144201D0012000E0002030BD55
:101D600002463A4B9A4202D23448103801E03748D2
:101D7000103811F0005F03D0364B0B40C36002E017
:101D8000344B0B408360704710B511F0800F09D0C1
:101D900022B1436943F08003436103E0436923F0C8
:101DA0008003436180290BD02AB1036801F01E042F
:101DB0002343036004E0036801F01E04A3430360AF
:101DC00010BD70B502460020002400251F4EB2420F
:101DD00002D21A4B103B01E01C4B103B1E4E31420D
:101DE00006D01E2606EAD124166806EA040502E09B
:101DF000566906F0800511F0005F01D05C6800E0D4
:101E00001C68144E34400C4202D00DB1012000E099
:101E1000002070BD02460D4B9A4202D2074810388E
:101E200001E00A48103811F0005F03D0094B0B4065
:101E3000C36002E0074B0B408360704710600240B4
:101E40003D000020400F002000003D2010640240B3
:101E50003F801CF07D0F7D0F3C0F3C0F002044495C
:101E60000860091D0860091D0860091D08604148D7
:101E70003F4914310860704700213D498279002AAA
:101E80003AD00A46126803689A430B461A600A1D44
:101E9000126803689A430B1D1A60027911440A689C
:101EA00003681A430A60324A0832126803689A4388
:101EB0002F4B08331A601A1D126803689A432C4B83
:101EC0000C331A604279102A0ED11A1F1268036867
:101ED0001A43274B08331A601A1D126803681A4305
:101EE000234B0C331A600DE02149427911440A68F2
:101EF00003681A430A6005E0027911440A6803681E
:101F00009A430A6070470021016001710C21417100
:101F10000021817170471649103109680143144A44
:101F200010321160704701460020114A14321268C5
:101F30000A4201D0012000E0002070470C49143112
:101F400008607047014600200022094B1B6803EA25
:101F50000102074B14331B680B4202D00AB1012067
:101F600000E000207047024914310860704700000B
:101F7000003C0140FFFF7F0010B5044688488442C2
:101F800008D10121084600F0F4FA0021012000F0F8
:101F9000F0FA5EE08348844208D10121022000F07B
:101FA000E8FA0021022000F0E4FA52E07E48844280
:101FB00008D10121042000F0DCFA0021042000F007
:101FC000D8FA46E07948844208D10121082000F07F
:101FD000D0FA0021082000F0CCFA3AE0744884429C
:101FE00008D10121102000F0C4FA0021102000F0D7
:101FF000C0FA2EE06F48844208D10121202000F071
:10200000B8FA0021202000F0B4FA22E06A488442A5
:1020100008D10121402000F0ACFA0021402000F05E
:10202000A8FA16E06548844208D10121802000F01A
:10203000A0FA0021802000F09CFA0AE06048844267
:1020400007D10121801500F094FA0021A01500F0BD
:1020500090FA10BDF0B50A4600210023002400BF0D
:102060003DE0012505FA01F3156805EA03049C42E9
:1020700034D105684F000326BE40B543056015798D
:102080004E00B5400668354305601579012D02D034
:102090001579022D16D185684F000326BE40B54341
:1020A000856055794E00B540866835438560456842
:1020B00001268E40B5434560456896798E40B6B29C
:1020C00035434560C5684F000326BE40B543C56033
:1020D000D5794E00B540C6683543C560491C102906
:1020E000BFD3F0BD4FF6FF71016000210171417156
:1020F0008171C17170474FF480320A43C261C1617E
:10210000C261C269C26970470246002013690B426E
:1021100001D0012000E0002070470146086980B22C
:1021200070470246002053690B4201D0012000E0B5
:10213000002070470146486980B2704701837047AC
:10214000418370470AB1018300E0418370474161D8
:10215000704742694A4042617047F0B5002300244D
:102160004D07ED0E02FA05F3CE1000F1200555F8EB
:1021700026504E07F70E0F26BE40B543CF1000F194
:10218000200646F82750CE1000F1200555F82650BD
:1021900045EA0304CE1000F1200545F82640F0BDC5
:1021A000000002400004024000080240000C02400F
:1021B000001002400014024000180240001C0240BF
:1021C00000200240F848006840F00100F64908602D
:1021D0000020F54908310860F3480068F3490840D9
:1021E000F1490860F248091D0860081F006820F4E2
:1021F0008020091F08600020EB490C3108607047FF
:102200000021E94A921C117011460870704710B500
:1022100001460022002300204A11012A02D1E24C8B
:10222000236808E0022A03D1DF4C7034236802E0FF
:10223000DD4C7434236801F01F02012494401C42D9
:1022400001D0012000E0002010BD70B50024002561
:10225000002600BF3120FFF7DAFF0646641CB4F504
:10226000A06F01D0002EF5D03120FFF7D0FF08B1CC
:10227000012500E00025284670BD01460020CA4A1D
:10228000106820F0F80040EAC10010607047C949AA
:10229000086070470021C44A703211701170012823
:1022A00002D004280AD104E00121BF4A7032117023
:1022B00005E00521BC4A7032117000E000BF00BF8C
:1022C0007047BD490860704770B5049C41EA8215AB
:1022D0000126C6EB530645EA0645054345EA046573
:1022E000B14E361D356070BDB24908667047820137
:1022F00042EA0172AC4B84331A607047AD4988667C
:102300007047AC49C864704702460020A64B0833AA
:10231000186820F0EC6042EA01031843A24B08332E
:1023200018607047024600209F4B0833186820F061
:10233000784042EA010318439B4B0833186070470A
:1023400001460020984A0832106820F00300084334
:102350001060704794480830006800F00C00704727
:1023600001460020904A0832106820F0F00008432F
:1023700010607047014600208B4A0832106820F434
:10238000E05008431060704701460020864A08323A
:10239000106820F4604040EAC10010607047F0B55A
:1023A0000021002200240225002602237E4F083748
:1023B0003F6807F00C0121B1042905D0082937D165
:1023C00005E07E4F076036E07D4F076033E0764FD3
:1023D0003F1D3F68C7F38056734F3F1D3F6807F0AE
:1023E0003F036EB1764FB7FBF3F7DFF8BCC10CF1DA
:1023F000040CDCF800C0CCF3881C07FB0CF40CE0E8
:102400006E4FB7FBF3F7DFF8A0C10CF1040CDCF85A
:1024100000C0CCF3881C07FB0CF4634F3F1D3F68E2
:10242000C7F301477F1C7D00B4FBF5F7076002E0AE
:10243000624F076000BF00BF5B4F08373F6807F07F
:10244000F00109095F4F7A5C0768D7404760564F33
:1024500008373F6807F4E051890A5A4F7A5C4768A9
:10246000D7408760504F08373F6807F46041490BF9
:10247000544F7A5C4768D740C760F0BD002100F434
:102480004072B2F5407F0AD1474A0832116821F400
:10249000F8114D4A02401143434A08321160424A42
:1024A00070321268C0F30B031A433F4B70331A604B
:1024B000704741494439086070473F4940390860D6
:1024C000704742490860704739B1374A3032126864
:1024D0000243354B30331A6006E0334A303212681B
:1024E0008243314B30331A60704739B12E4A34324F
:1024F000126802432C4B34331A6006E02A4A343205
:1025000012688243284B34331A60704739B1264A27
:10251000383212680243244B38331A6006E0224AEC
:10252000383212688243204B38331A60704739B111
:102530001D4A4032126802431B4B40331A6006E0CA
:10254000194A403212688243174B40331A60704771
:1025500039B1154A443212680243134B44331A60AE
:1025600006E0114A4432126882430F4B44331A602A
:10257000704739B10C4A1032126802430A4B1033CB
:102580001A6006E0084A103212688243064B103384
:102590001A607047E1B1044A143212680243024BD8
:1025A00014331A6019E0000000380240FFFFF6FE05
:1025B0001030002400004742800E47420024F400FF
:1025C00000127A0074000020FFFCFF0F5C014742FC
:1025D0005B4A126882435A4B1A60704739B1584AB5
:1025E000121D12680243564B1B1D1A6006E0544A26
:1025F000121D12688243524B1B1D1A60704739B17D
:102600004F4A0C32126802434D4B0C331A6006E0FD
:102610004B4A0C3212688243494B0C331A607047A4
:1026200039B1474A103212680243454B10331A60E1
:1026300006E0434A103212688243414B10331A605D
:10264000704739B13E4A3C32126802433C4B3C333E
:102650001A6006E03A4A3C3212688243384B3C33F7
:102660001A60704739B1364A403212680243344B1F
:1026700040331A6006E0324A403212688243304BDF
:1026800040331A60704739B12D4A44321268024310
:102690002B4B44331A6006E0294A443212688243C5
:1026A000274B44331A60704739B1254A4C321268BF
:1026B0000243234B4C331A6006E0214A4C32126825
:1026C00082431F4B4C331A60704739B11C4A503259
:1026D000126802431A4B50331A6006E0184A50320F
:1026E00012688243164B50331A60704739B1144A4E
:1026F000D21F12780243124BDB1F1A7006E0104AF9
:10270000D21F127882430E4BDB1F1A7070470C48A1
:102710006030006840F0807009496031086070479F
:1027200001460020064A083A12680A4201D00120F8
:1027300000E0002070470249891F087070470000C0
:102740001438024010B50446F648844208D10121ED
:102750008014FFF765FF0021A014FFF761FF16E06A
:10276000F148844208D101210014FFF748FF0021FD
:102770002014FFF744FF0AE0EC48844207D101210E
:10278000C013FFF73CFF0021E013FFF738FF10BD37
:1027900010B50022028802F441520B884C88234372
:1027A0008C882343CC8823430C8923434C892343BF
:1027B0008C892343CC8923431A430280838B4FF2B5
:1027C000FF74234083830B8A038210BD2DE9F04FF1
:1027D000002502230024012700220026944690466B
:1027E0009146B0F81CA04FF2400B0AEA0B0AA0F881
:1027F0001CA04FF0020AA0F820A0858BD1F808A0F9
:10280000BAF1020F01D100BF6AE0B1F804A0BAF139
:10281000000F01D1012700E00227DFF814A3DAF846
:1028200000A01AF4000F09D0DFF804A3DAF800A022
:102830002AF4000ADFF8F8B2CBF800A0DFF8F0A223
:102840000AF17C0ADAF800A0CAF38818DFF8E0A2DF
:102850000AF17C0ADAF800A0CAF30279DFF8D0A204
:10286000AAF1040ADAF800A00AF03F0CDFF8C4A2CB
:10287000BAFBFCFA0AFB08FABAFBF9F6B1F806A0B3
:10288000BAF5007F0ED14FEA162A0AEB8A0A4FEA00
:102890004A0AD1F808B0BAFBFBFA0AF1050A1FFA96
:1028A0008AF20FE04FEA471AB6FBFAFA0AEB8A0AF5
:1028B0004FEA4A0AD1F808B0BAFBFBFA0AF1050A56
:1028C0001FFA8AF24FF00A0AB2FBFAF202F0010490
:1028D000A2EB040ACAF34F034FF6FF7A0AEA042474
:1028E000022B01DBFF2B01DD02230024B1F806A03F
:1028F0004AEA040A4AEA030AA0F820A0B1F804A0B0
:10290000B1F80CB04AEA0B0AB1F802B04AEA0B0A75
:10291000B1F800B04AEA0B0A4AF4006A4AEA05052F
:102920008583BDE8F08F0021018041808180C180D6
:10293000018141818181C18107210182704700218C
:10294000018041808180C1800221816000218181DC
:10295000704721B1028842F04002028004E0028800
:102960004FF6BF731A400280704721B1828B42F448
:102970008062828304E0828B4FF6FF331A408283A9
:10298000704702884FF2FF731A40028002880A43A0
:1029900002807047B1F5804F04D1028842F4804232
:1029A000028004E002884BF6FF731A4002807047F1
:1029B000A1F57E42FF3A04D0028842F48072028080
:1029C00004E002884FF6FF631A400280704721B18D
:1029D000828842F00402828004E082884FF6FB7312
:1029E0001A408280704721B1828842F010028280B2
:1029F00004E082884FF6EF731A408280704730B54A
:102A000000220023848B4FF240052C408483022453
:102A10000484828B0C88B4F5007F01D00C8814B933
:102A20004FF4807308E00C88B4F5407F03D00C8825
:102A3000B4F5807F00D100238C888D892C434D888C
:102A40002C431C4344F400642243828330BD01467E
:102A5000888970478181704721B1028842F4005211
:102A6000028004E002884DF6FF731A40028070472E
:102A7000018841F4805101807047024600200129FD
:102A800001D0108B00E0908A70470146088A704799
:102A90001AB183880B43838002E083888B43838051
:102AA000704730B5002400230C110125A540ABB2BE
:102AB0001AB185881D43858002E085889D43858005
:102AC00030BD0246002013890B4201D0012000E0F6
:102AD00000207047CA4302817047F0B502460020CB
:102AE00000240023002501F00F070126BE40B4B2E8
:102AF0000B1101269E40B3B2968806EA030516899B
:102B0000264202D00DB1012000E00020F0BD10B53A
:102B1000002201F00F040123A3409AB2D3430381A2
:102B200010BD00000030014000380040003C004073
:102B30000838024000127A0010B501218803FFF71F
:102B40006FFD00214FF48040FFF76AFD10BD1A4968
:102B50000860704730B500228B071C0F0F2303FA63
:102B600004F2154B08338C1053F824309343124C65
:102B700008348D1044F8253023468C1053F8243047
:102B80008C07240F00FA04F423430B4C08348D10F7
:102B900044F8253030BD094908607047084908608D
:102BA0007047002004492031096811F4807F01D06A
:102BB000012000E00020704700380140DC0027427F
:102BC000000427422DE9FE4F804681EA0300C00F32
:102BD0000C46009021F0004123F00045B8EB0200C4
:102BE000A94105D24046214690461C460B46024666
:102BF00023F00040104304D14046214603B0BDE815
:102C0000F08F270DC7F30A00C3F30A510290401A50
:102C10000190402866DAC3F3130040F4801B00984B
:102C2000924620B10023D2EB030A63EB0B0B019811
:102C30005946C0F14002504600F009FA06460D46DA
:102C400050465946019A00F011FA10EB0800614114
:102C5000002487EA115284EAE7731A433BD0009AB2
:102C60003AB3019A012A4FEA075210DC001B61EBCC
:102C700002014FF0004202EA0752CDE90042001C77
:102C800041F5801132462B4600F045FAB6E7001BAD
:102C900061EB0201001C41F5801300185B41201814
:102CA000A2F5001747EB030140EAD570B6196D4154
:102CB00011E06D084FEA360645EAC0754FEA075243
:102CC000001B61EB0201001C41F5801149084FEA2D
:102CD00030000019514132462B4603B0BDE8F04F99
:102CE00000F00CBA0098012240000023D0EB020251
:102CF00063EBE073009821464FEAE074B8EB000004
:102D000061EB0401E9E783F000435BE781F00041F8
:102D100058E72DE9FE4F81EA030404F0004421F056
:102D2000004100944FF0000B23F0004350EA0104EF
:102D300002D052EA030404D10020014603B0BDE8EA
:102D4000F08FC3F30A54C1F30A552C44A4F2F334B0
:102D50000194A0FB0254C1F3130141F48011C3F3A9
:102D6000130343F4801301FB024400FB034E840A67
:102D7000970A44EA815447EA8357A4FB07680295FF
:102D80008D0A05FB07854FEA932C04FB0C5427059D
:102D9000029D4FEA065847EA1637B5EB08056EEB79
:102DA000070C870E920E47EA811742EA8312A7FBAF
:102DB0000201B6EB0B0164EB00042B0D43EA0C336C
:102DC0005E1844EB1C50DA465146E7FB0201C5F39E
:102DD00013044FEA0B3343EA14534FEA0432019CC5
:102DE00043EA0603A4F10C040294009CCDE900B46C
:102DF00000F091F9A2E72DE9F04D81EA030404F017
:102E0000004B21F0004514464FF0000A23F000412A
:102E100050EA050220D054EA01021DD0C5F30A573A
:102E20000246C5F31303C1F31300C1F30A5640F47D
:102E3000801543F48013A7EB0608101BD64608F252
:102E4000FD3873EB050002D308F1010801E0921888
:102E50005B41B8F1000F03DA00200146BDE8F08DB8
:102E600000204FF48011064684460EE0171B73EBDA
:102E7000050705D3121B63EB050306434CEA010C5F
:102E800049084FEA300092185B4150EA0107EDD142
:102E900052EA030012D082EA040083EA05010843E3
:102EA00003D100224FF0004308E0101BAB4102D2D7
:102EB0000122002302E06FF0010253101AEB06001A
:102EC0004CEB085110EB0A0041EB0B01BDE8F04D53
:102ED00000F014B90EB5C10F80EAE0700844CA07CB
:102EE000002140F233438DE80E000A460B4600F005
:102EF00012F903B000BD0EB540F23341029100213A
:102F0000CDE900110A460B4600F005F903B000BDFB
:102F100000F0004230F000400AD0C10D01F56071B0
:102F2000C0F3160042EA0151C2084007114370473E
:102F3000002001467047000030B5002904DB4FF047
:102F40000044404264EB0101002B04DB4FF00044DD
:102F5000524264EB03038B4208BF824230BD000043
:102F600030B5002904DB4FF00044404264EB01011E
:102F7000002B04DB4FF00044524264EB0303994200
:102F800008BF904230BD000001F0004330B421F092
:102F9000004150EA010206D00A0DA2F56072C1F3A9
:102FA0001301002A02DC30BC00207047440F44EAC1
:102FB000C104C100E01830BC00EBC25000F068B89A
:102FC00030B50B46014600202022012409E021FAF9
:102FD00002F59D4205D303FA02F5491B04FA02F5F6
:102FE0002844151EA2F10102F1DC30BD2DE9F05F8D
:102FF0000546002092469B46884606468146402468
:103000001BE0284641464746224600F091F95346C8
:103010005A46C01A914110D311461846224600F074
:1030200016F82D1A67EB01084F46224601200021B1
:1030300000F00DF817EB00094E41201EA4F1010429
:10304000DFDC484631462A464346BDE8F09F202A49
:1030500004DB203A00FA02F1002070479140C2F1EF
:10306000200320FA03F3194390407047202A06DB1F
:10307000CB17203A41FA02F043EAE07306E041FA46
:1030800002F3D040C2F12002914008431946704734
:103090000029A8BF7047401C490008BF20F001006C
:1030A000704710B4B0FA80FC00FA0CF050EA01044A
:1030B00004BF10BC704749B1CCF1200421FA04F4DC
:1030C00011FA0CF118BF012121430843A3EB0C01B5
:1030D000CB1D0106000A002BBEBF002010BC7047AC
:1030E00000EBC35010440029A4BF10BC7047401C23
:1030F000490008BF20F0010010BC704710B5002B3C
:1031000008DA401C41F1000192185B411A4301D1D9
:1031100020F0010010BD2DE9F04D92469B4611B103
:10312000B1FA81F202E0B0FA80F220329046FFF765
:103130008EFF04460F4640EA0A0041EA0B0153465F
:103140005A46084303D120463946BDE8F08D114662
:1031500053EA010015D0C8F14002504600F0E8F8EB
:1031600005460E46504659464246FFF770FF084353
:1031700001D0012000E00020054346EAE0762C4320
:1031800037430A984FEA4453A0EB08004FEAD4248F
:103190000A304FF0000244EA47544FEAD72502D5DF
:1031A00000200146D1E7010510196941DDE9084514
:1031B00000196941BDE8F04DA0E72DE9F04D00236D
:1031C0001A461B1A8A4103DB00200146BDE8F08D38
:1031D000C1F30A52C1F3130141F480154FF0000B03
:1031E000D10702D100186D41521E0027044640F25B
:1031F000FF11384601EB620A3E4680460246002037
:103200004FF4801100F094F8C2197141BB1846EBDD
:103210000100B4EB030C75EB000C04D3E41A65EB6E
:10322000000517460E46241908F101006D4180463D
:103230003428E3DDF91946EB0600091BA84103D247
:103240004FF0FF32134601E0002213461BEB07004C
:1032500046EB0A51BDE8F04DFFF750BF2DE9FE4F98
:10326000C3F30A5701F000450024C1F30A56C3F323
:103270001303C1F3130143F4801312EB020AA646B1
:1032800041F48011009543EB030CA7F1010B13E00F
:10329000B0EB0A0071EB0C0107D54FF00008D0EB42
:1032A000080085F0004568EB0101171A73EB010770
:1032B000EED3761E001849415E45F6DA50EA010267
:1032C00004D10099204603B0BDE8F08FCDE900E5B8
:1032D000002213460296FFF71EFFF4E7C1F30A52DD
:1032E000C1F3130140F2FF3341F480119A4202DA34
:1032F00000200146704740F233439A42A2F2334223
:1033000002DC524200F014B8FFF7A1BE064C074D94
:1033100006E0E06840F0010394E8070098471034A5
:10332000AC42F6D3FCF734FFC8580008F858000840
:10333000202A04DB203A21FA02F00021704721FA0A
:1033400002F3D040C2F12002914008431946704771
:10335000000000000FB4054B10B503A9044A029801
:1033600000F0CEFC10BC5DF814FB000087090008DB
:103370002800002003B401984100009850EAC120C1
:1033800018BF04204A0D18BF40F0010040F2FF7240
:10339000B2EB515F08BF40F00200012808BF0520D2
:1033A00002B070470000000070B59F482DED020B81
:1033B0002DED068B079D25F0004484421DDB9B48C4
:1033C000844202DC0FD1069868B19DED060B53ECE8
:1033D000102B51EC100BFFF7F5FBBDEC068B02B088
:1033E00041EC100B70BD002DCCBF9FED910B9FEDFC
:1033F000920BBDEC068B02B070BD9148844215DA89
:1034000090488442A8BF4FF0FF3440DA9DED060B90
:1034100051EC100BFFF7AEFF042808BF00F078FB5B
:103420009DED060BBDEC068B02B070BD9DED060B4D
:1034300051EC100B01F040F841EC100B82488DED7F
:10344000060B9FED838B84423CDA834884421FDA6B
:1034500000249FED839B51EC100B53EC192BFFF7CD
:10346000B1FB9DED060B41EC1A0B53EC192B51EC03
:10347000100BFFF74EFC53EC182BFFF744FC53ECFA
:103480001A2BFFF7B8FC41EC100B8DED060B49E051
:10349000012453EC182B51EC100BFFF793FB9DED1F
:1034A000060B41EC190B53EC182B51EC100BFFF7EA
:1034B0002AFC53EC192BFFF79EFC41EC100B8DED11
:1034C000060B2FE0684884421FDA02249FED689BB8
:1034D00051EC100B53EC192BFFF71BFC53EC182B82
:1034E000FFF770FB9DED060B41EC180B53EC192B0D
:1034F00051EC100BFFF707FC53EC182BFFF77BFC8C
:1035000041EC100B8DED060B0CE053EC102B03245B
:103510009FED590B51EC100BFFF76DFC41EC100BBC
:103520008DED060B9DED060B53EC102B51EC100BA3
:10353000FFF7EFFB41EC180B53EC182BFFF7E9FBFF
:1035400041EC190B4E480621B0EE490AF0EE690A2B
:10355000784400F05EFA53EC182B51EC100BFFF797
:10356000D8FB41EC180B4748B0EE490AF0EE690A67
:103570000521784400F04DFA53EC192B51EC100B57
:10358000FFF7C7FB41EC100B51EC180B53EC102B61
:10359000002C0EDAFFF716FB9DED061B53EC112BEA
:1035A000FFF7B7FB9DED061B53EC112BFFF7AEFBAE
:1035B00035E0FFF707FB9DED061B53EC112BFFF7E2
:1035C000A8FB41EC100B3048784400EBC40090EDB0
:1035D000001B51EC100B53EC112BFFF794FB9DEDEE
:1035E000061B53EC112BFFF78EFB41EC110B274808
:1035F000784400EBC40090ED000B51EC110B53EC40
:10360000102BFFF783FB41EC100B002DA2BFBDEC8C
:10361000068B02B070BD51EC100B81F0004141EC03
:10362000100BFFE600000000000010440000F07FD7
:10363000182D4454FB21F93F182D4454FB21F9BFA8
:103640000000DC3F0000203E0000F33F00000000CF
:10365000000000000000F03F0000E63F0000000016
:103660000000000000000040008003400000000057
:10367000000000000000F83F000000000000F0BF64
:103680003C230000F22200007C22000034220000D3
:1036900070B52DED040B2DED028B82B0DDE9053404
:1036A000DDF81CC062422CF00041224341EAD27591
:1036B0005F4A049E23F00040954205D87542354389
:1036C00040EAD575954210D99DED060B53EC102BB1
:1036D0009DED040B51EC100BFFF774FA41EC100B4D
:1036E00002B0BDEC028B04B070BDACF14055A5F149
:1036F0007F6525430BD0022505EAAC7545EAD375F5
:1037000006439FED4D8B9FED4E2B07D010E09DEDB6
:10371000040B51EC100B00F096FE39E0002D14BFA5
:10372000012D9DED040BDBD0022D34D0032D37D0BD
:103730000C439FED451B9FED460B0AD0914218D1DB
:10374000904209D121F0804120F0804007910590FE
:103750000FE0002BC4DA10E03F4C7C44002D08BF82
:1037600094ED000BBCD0012D0CD0022D13D0032DF5
:1037700016D0904219D1002BB2DAB0EE410AF0EE29
:10378000610AADE794ED000B51EC100B81F00041A4
:1037900041EC100BA4E7B0EE480AF0EE680A9FE790
:1037A000B0EE420AF0EE620A9AE7401A00153C2891
:1037B00017DCBCF1000FBCBF10F13C0F9FED280BD4
:1037C0000FDB9DED060B53EC102B9DED040B51EC24
:1037D000100BFFF710FB00F06FFE00F034FE41EC21
:1037E000100B002D8DED000B3FF47AAF012D10D0A2
:1037F000022D9FED1D0B53EC102B9DED000B51EC9A
:10380000100B0ED0FFF77FFA53EC182BFFF77BFA63
:10381000BEE710EE900A80F0004001909DED000B95
:103820005EE7FFF770FA53EC182BFFF76FFAAFE77C
:103830000000F07F00000000182D4454FB210940D7
:10384000182D4454FB2109C0182D4454FB21F9BF05
:10385000182D4454FB21F93F6221000000000000B4
:103860000000000000000000075C143326A6A13C05
:1038700010B52DED040B2DED028B86B09DED080BE0
:1038800010EE100A10EE901A8DED000B002818BFF4
:103890000120084320F00040C0F17F6000F1E040CB
:1038A000C00F23D19DED0A0B10EE101A10EE900AF6
:1038B0008DED000B002918BF0121084320F00040C6
:1038C000C0F17F6000F1E040C00F0FD12E49099890
:1038D0009FED2F8BB1EB400F04BF0898002847D015
:1038E0000B98400004BF0A98002841D09DED0A0BB8
:1038F00053EC102B9DED080B51EC100BFFF7AEFCB9
:1039000041EC100B40F2FF7110EE900A8DED020BAE
:103910008DED000B31EA105023D00998039900F087
:10392000004001F0004188421BD09DED0A0B8DED57
:10393000040B9DED020B8DED000B10EE900A059926
:1039400061F31E0005909DED041B9DED020B51ECF3
:10395000110B53EC102BFFF7D9F941EC100B8DED47
:10396000020B9DED020B06B0BDEC028B04B010BD46
:10397000012000F0EDF853EC182B51EC180BFFF779
:103980003AFA41EC100BEEE70000E0FF0000000007
:10399000000000000000000000B52DED048BB0EE2B
:1039A000408AF0EE608A83B051EC180BFFF705FCFB
:1039B00041EC190B19EE100A19EE901A8DED009BCF
:1039C000002818BF0120084320F00040C0F17F60AC
:1039D00000F1E040C00F14D018EE101A18EE900A53
:1039E0008DED008B002918BF0121084320F0004015
:1039F000C0F17F6000F1E040C00F04BF012000F083
:103A0000A7F8B0EE490A03B0F0EE690ABDEC048BEA
:103A100000BD70B504462DED028B4D1E00EBC500B8
:103A2000B0EE408AF0EE608A90ED000B35F00600B3
:103A300017D053EC182B51EC100BFFF76AF941EC3F
:103A4000100B6D1E04EBC50090ED001B51EC100B2C
:103A500053EC112BFFF7B6F841EC100B35F00600D4
:103A6000E7D1022D36D0042D1CD0062D1CBFBDEC95
:103A7000028B70BD53EC182B51EC100BFFF749F97A
:103A800094ED0A1B53EC112BFFF79CF853EC182B09
:103A9000FFF73FF994ED080B53EC102BFFF792F86A
:103AA00041EC100B53EC182B51EC100BFFF731F9D4
:103AB00094ED060B53EC102BFFF784F853EC182B06
:103AC000FFF727F994ED041B53EC112BFFF77AF85D
:103AD00041EC100B53EC182B51EC100BFFF719F9BC
:103AE00094ED020B53EC102BFFF76CF853EC182BF2
:103AF000FFF70FF994ED000B53EC102BFFF762F872
:103B0000BDEC028B41EC100B70BD0000000000000A
:103B10009FED050B10B553EC102B51EC100BFFF77C
:103B2000F8F841EC100B10BD000000000000001080
:103B300002E008C8121F08C1002AFAD17047704776
:103B4000002001E001C1121F002AFBD170470000D4
:103B50000149086070470000A00000202DE9FF5FC8
:103B6000DDE90220010DDDF838B0024310D10F98D5
:103B700001244CA2012808D0002100980F9BC0E925
:103B80000021C0E90243BDE8FF9F6FEA0B01F4E7A3
:103B9000A1F2FF3144F6105041430D140F98012853
:103BA0000ED0A5EB0B00401C4FF000043E4EDFF89A
:103BB000FC90B0F1000AA04605DACAF1000717E050
:103BC000CBF10000F0E7074612E0F80707D02246E5
:103BD000334640464946FFF79CF8804689462246D0
:103BE000334610461946FFF794F804460E467F10F8
:103BF000002FEAD1DDE90201BAF1000F42464B463F
:103C000002DAFFF786F801E0FFF7F5F804460E4602
:103C10000022274BFFF7A4F903D84FF0FF300146ED
:103C200007E00022234B20463146FEF7CBFFFFF78B
:103C300055FB102409E0002C0ADB0A220023FFF7C1
:103C4000D5F9019B30321A55641E50EA0102F2D1B7
:103C5000641C019AC4F1110314440F9A012A09D07B
:103C60000122084301D15B450FDD4FF0000205F151
:103C700001050DE0084303D1A3EB0B056D1E09E020
:103C800000204FF0110B0F9088E701DA00226D1E23
:103C9000002A83D000980F99C0E90231C0E900459D
:103CA00071E7000030000000000024400000F03FF9
:103CB0000000F0430000E03F10B5002A06DA22F0D1
:103CC0000042D21D22F00703102203E0D21C22F092
:103CD00003030C2213B19C188C4201D9012010BDA2
:103CE000024401448360C0E90021C91AD018884207
:103CF00002D810600246F9E70020106010BD0000F5
:103D00002DE9FF4F95B09B4689460646002512E2F5
:103D1000252878D10024761CF94A274601210594EC
:103D20003378203B01FA03F0104202D00443761CA2
:103D3000F6E730782A2811D06FF02F033078A0F101
:103D40003002092A16D8059A44F0020402EB8202D6
:103D500003EB42021044761C0590EFE759F8042B60
:103D60000592002A03DA504244F40054059044F0CE
:103D70000204761C30782E2816D116F8010F44F074
:103D800004042A280DD06FF02F023078A0F1300300
:103D9000092B09D807EB870302EB4303C718761CEE
:103DA000F3E759F8047B761C30786C280FD006DCDA
:103DB0004C2817D068280DD06A2814D104E0742844
:103DC00010D07A280FD10DE044F400140AE044F436
:103DD000801401E044F440147278824202D1761CCF
:103DE00004F58014761C307866280BD013DC582834
:103DF00077D009DC002875D04528F6D04628F4D0C5
:103E000047281AD19FE118E0632835D0642879D07B
:103E1000652812D197E1702873D008DC6728F1D0AB
:103E200069286FD06E280DD06F2806D1B5E07328B1
:103E30002CD0752875D0782874D05A461799904799
:103E40006D1C76E1C4F30250022809D003280DD07E
:103E5000D9F8001004280DD00D6009F1040968E1BB
:103E6000D9F80010EA17C1E90052F6E7D9F80010B6
:103E70000D80F2E70D70F0E719F8041B8DF80010C3
:103E800000208DF80100EA46012003E059F804AB58
:103E90004FF0FF3061074FF0000102D40DE008F150
:103EA00001018846B9420FDA8045F8DB1AF808109C
:103EB0000029F4D108E008F1010188468142FADBCB
:103EC0001AF808100029F6D105985B46A0EB080700
:103ED00021463846179A00F09EFA284400EB080560
:103EE00007E04DE02BE10DE01AF8010B5A46179957
:103EF0009047B8F10108F7D25B4621463846179A39
:103F000014E142E00A220092C4F302524FF0000A88
:103F1000022A08D059F804CB032A4FEAEC710AD0E0
:103F20000DE029E02AE009F1070121F00702F2E89B
:103F300002C1914609E00FFA8CFC4FEAEC71042AA9
:103F400003D14FFA8CFC4FEAEC71002907DA0A46DC
:103F50000021DCF1000C61EB02012D2202E02205C0
:103F600004D52B228DF80420012203E0E20701D0C2
:103F70002022F7E7904653E00A2102E010220DE0EC
:103F800010214FF0000A00910BE010224FF0000AC0
:103F900044F004040827009203E008224FF0000ACE
:103FA0000092C4F30252022A05D059F804CB002132
:103FB000032A08D009E009F1070121F00702F2E81D
:103FC00002C1914605E01FFA8CFC042A01D10CF0D5
:103FD000FF0C4FF00008220722D5702827D0009B45
:103FE00083F0100353EA0A0309D15CEA010206D008
:103FF00030228DF804208DF8050002229046009BA7
:1040000083F0080353EA0A030AD15CEA010201D1F2
:10401000620705D530228DF804204FF001087F1E7D
:10402000582809D037A003900EA8029013E0402230
:104030008DF804200122E1E737A0F4E753466046FB
:10404000009AFEF7D3FF84460398825C0298A0F1A1
:104050000100029002705CEA0100EFD1029806A90B
:10406000A1EB000000F1200A600702D524F480349F
:1040700000E00127574502DDA7EB0A0000E0002021
:1040800000EB0A01009005984144A0EB0100059067
:10409000E00306D45B462146179A059800F0BBF969
:1040A0000544002706E001A85A46C05D17999047CD
:1040B0006D1C7F1C4745F6DBE0030CD55B462146B3
:1040C000179A059800F0A7F9054404E030205A46F5
:1040D000179990476D1C0099481E00900029F5DC47
:1040E00008E0029802995A460078491C02911799F3
:1040F00090476D1CBAF10001AAF1010AF1DC6BE1F5
:1041000009280100303132333435363738396162AD
:104110006364656600000000303132333435363771
:1041200038394142434445460000000000F060F940
:10413000054406F10106307800287FF4E9AD19B096
:104140002846BDE8F08F620700D4062709F1070270
:1041500022F0070CFCE80223E14603F000485FEA86
:10416000080C02D00FF27C2C0DE05FEA045C02D553
:104170000FF2742C07E05FEAC47C02D00FF26C2CC3
:1041800001E0AFF2700C4FF0FF3823F00043CDF8A0
:1041900050C065280CD006DC452809D046281DD023
:1041A00047283ED13EE0662818D0672839D139E04B
:1041B0000021112F01DB112000E0781CCDE9000166
:1041C00006A90EA8FFF7CAFCDDE90F010E9A0391BC
:1041D0000021009207F1010A04914EE04FF00040E7
:1041E0000097CDE9011006A90EA8FFF7B7FCDDE99D
:1041F0000F0203920E9B11990022DDF80CA0009390
:10420000049219B907F1010100EB010AB7EB0A00AA
:1042100004D4C0F1FF3007F1010A0490AAEB0700B3
:10422000019046E0012F00DA01270021112F01DD66
:10423000112000E03846CDE9000106A90EA8FFF7DD
:104240008DFCDDE90F010E9A03910021049100928B
:10425000BA4621070CD40399514500DA8A46BAF1CF
:10426000010F05DD009AAAF10101515C302908D047
:10427000B84202DA10F1040F06DA0121CDE901108B
:1042800017E0AAF10101E9E7002805DC04990144DF
:104290000491AAEB000102E0411C514500DD8A4671
:1042A0000499A0EB010000F1010001904FF00040E3
:1042B0000290200704D40198504501DBCDF804801A
:1042C00000208DF84F0002980DF14F07B0F1004F1C
:1042D00025D02B200E9002984FF0020800280CDA0F
:1042E000404202902D200E9007E00A210298FEF72E
:1042F00067FE3031029007F8011DB8F10001A8F106
:104300000108F2DC02980028EFD1791E0E9808709F
:10431000307800F0200040F0450007F8020D12A8A8
:10432000A0EB070000F107081498007800B1012005
:1043300000EB0A01019801EBE07105984144A0EB04
:104340000100A0F101000590E00306D45B46214680
:10435000179A059800F05FF805441498007820B18A
:104360005A461799904705F10105E00323D55B46AE
:104370002146179A059800F04EF805441BE0049872
:10438000002807DB0399814204DD04990098405C12
:10439000179901E0179930205A46904704986D1CF0
:1043A000401C04900198401E019004D12E205A46D2
:1043B000179990476D1CBAF10001AAF1010ADEDCE1
:1043C00005E017F8010B5A46179990476D1CB8F194
:1043D0000001A8F10108F4DC5B462146179A059814
:1043E000A4E600002D0000002B00000020000000CB
:1043F0002DE9F041044600251E461746880405D4E1
:1044000006E039462020B04705F10105641EF8D5C5
:104410002846BDE8F0812DE9F041044600251E46FE
:104420009046C80301D5302700E02027880405D531
:1044300006E041463846B04705F10105641EF8D54F
:104440002846BDE8F08110B541EC100BFEF7ACFF3B
:1044500051EC100B10BD000008480068C0010BD5DE
:1044600007480068C00707D0054880380068002862
:1044700002DA04490120087070470000FCED00E0FA
:10448000800E00E0960000204FF06042D36F002BBA
:10449000FCD0C36AD367D36F002BFCD0C07840EA4E
:1044A0000120A2F87C0070474FF06041CA6F002ADB
:1044B000FCD081F87C00704741EC100B82B010EE0C
:1044C000900A8DED000B20F0004001909DED000B57
:1044D00002B051EC100B704770B504000D4603D0CC
:1044E00012B92078012801D0802070BD204600F04C
:1044F00027FB28B12946204600F040F8002070BD77
:10450000812070BD0246084810B500EB810050F8CC
:10451000040C002806D0114600F066FCBDE81040EF
:1045200000F052BC10BD0000141B001010B5044672
:104530008089002821D0608904EB80000069086030
:104540006078022805D10021204600F04DFC00F0E3
:104550003BFC04F10C0000BFD0E85F1F491EC0E81F
:10456000521F002AF8D16089401C80B26081E18925
:10457000884201D100206081042010BD10B500F0F8
:1045800033FCBDE8104000F01FBC10B5002100F066
:104590002BFCBDE8104000F017BC0000EFF30582D3
:1045A0000AB182207047EFF31482144B12F0030219
:1045B00006D0012A1BD0022A11D0032A19D113E0F8
:1045C000EFF3088282F309881A78D2070AD0022210
:1045D00082F31488BFF34F8FBFF36F8F09E01A780F
:1045E000D20706D10322F3E71A78D20701D0FF20C1
:1045F0007047DFF80CC000DF7047000080570008EC
:10460000A55300082DE90E40EFF30582B2B1020078
:104610004FF0800000D021B10090DDE9011203B01D
:1046200000BD11780129F7D101A91046FFF77EFFDF
:10463000042801D00020EFE71020EDE7DFF804C0E8
:1046400000DFECE79D540008EFF305820AB100207B
:104650007047DFF808C000DF70470000D75400083B
:104660002DE91040EFF3058159B100F003FA8021E4
:1046700028B10278022A02D1FFF787FF00210846FD
:1046800010BDDFF808C000DF10BD0000FB540008BB
:10469000EFF3058212B14FF0FF307047DFF804C02E
:1046A00000DF7047155500082DE97040EFF30582D3
:1046B00072B10C4600F092FD4FF0004530B1210C74
:1046C00004D1058BC178A0B2FFF71CFF284670BD4E
:1046D000DFF804C000DF70BD4B550008EFF3058321
:1046E0000BB182207047DFF808C000DF7047000080
:1046F00071550008DFF80CC000DFDFF80CC000DFE8
:10470000FEE700003556000851560008EFF305801B
:1047100008B100207047DFF808C000DF70470000D4
:1047200035560008DFF804C000DF704789560008DE
:10473000EFF305830BB100207047DFF808C000DFFE
:1047400070470000A1560008EFF305820AB18220ED
:104750007047DFF808C000DF70470000D55600083A
:10476000094C4FF0FF3529462068FFF74BFF024602
:104770000846102AF7D1FFF7D5FF0028F3D00246EC
:1047800008469047EFE70000200000204FEA0001B4
:1047900051E8000F28B1036841E80032002AF7D140
:1047A0007047BFF32F8F704710B568B161B10B31FF
:1047B00021F00302016844680B1A1B1B934205D2C7
:1047C000084609680029F5D1002010BD3CB1211828
:1047D0000368C1E90032016001F1080010BD4260C8
:1047E000083010BD70B50C46002812D04FF6FF718E
:1047F000084D884204D22A680146104600F020FB8A
:1048000028684470044800F021F9BDE8704000F0C9
:1048100013BC70BD88000020500100200F4810B567
:104820000D4942680E480B680088934204D00A6024
:10483000CB88421E1A448A808A8882420AD100208C
:104840000860064800F002F90146BDE81040034840
:1048500000F024BB10BD0000980000205001002093
:104860009400002070B5194DE86800282CD0A88A63
:10487000401EA882002621E0A06838B1616841602E
:10488000606810B1A16881606660A6600F4821462B
:10489000183800F003FBA08AA8826078042804D1AD
:1048A0000B49E08A09880844A08201206070E06812
:1048B000E860E06808B10561E6602661A88A002822
:1048C00002D1EC68002CD7D170BD00006801002037
:1048D0009400002070B504000FD00D4DA178012682
:1048E0002868827891420CD900F0F4FA2868467062
:1048F0002046BDE8704000F09FBB064800F0A6F8D7
:10490000F7E766702146BDE87040024800F0C6BA7D
:10491000880000205001002010B50446008B084399
:1049200020836278618B062A18D0052A19D10842A3
:1049300017D001EA0002628388432083204600F0FA
:10494000E9FA01206070628B0821204600F0DAFA53
:104950002146BDE81040034800F0A0BA31EA000249
:10496000EAD010BD500100200246154810B500EBFA
:10497000810050F8044C002C21D0208B1043208360
:104980006278618B062A17D0052A18D1084216D002
:1049900001EA0002628388432083204600F0BAFACD
:1049A00001206070628B0821204600F0ABFA20469F
:1049B000BDE81040FFF78EBF31EA0002EBD010BD1A
:1049C000141B001003460E4810B504688C46208B5B
:1049D00042B133EA000101D0062009E09843208368
:1049E000022010BD10EA030201D06283F6E7052021
:1049F000C1B263836046FFF7F5FE012010BD0000E1
:104A000088000020814202D342688A4201D80120F6
:104A1000704750E8002F0A6040E80012002AF8D1E1
:104A20000020704768B161B10839002202E00246F7
:104A3000006830B18842FAD12AB1006810600020C5
:104A400070470120704700214160F8E70146406847
:104A500042684A600B780022022B05D0012B03D05C
:104A6000032B01D04260704743680BB199604260EC
:104A700082607047810700D00020704770B50446FF
:104A800000201546207001226270A1706060A06055
:104A9000E0602061A082E0822083608384F82000AF
:104AA000608C18B90448FFF771FEA06229462046C1
:104AB000BDE8704000F01CB86001001008B1082982
:104AC00001D2012070470144091F002201600A60E1
:104AD000426010467047000003480021016003490E
:104AE0000968C180704700009800002078570008CE
:104AF00010B5428C920803D10F4A1268C2F38D029E
:104B0000836A03EB8202530700D5121F403A4FF02D
:104B10008073C2E90E1300234FEA030442F82340D6
:104B20005B1C0E2BFAD3C36913624262C162806AB6
:104B30000249016010BD000074570008A52E5AE21A
:104B4000C1898089081A70470122027000224270D0
:104B50008270426002814281103982818908C1815C
:104B6000704700002DE9F0410446407800270E46CA
:104B70004FF00108012855D004F10C0502282BD074
:104B8000032818D0A089E189884262D2208904EBE9
:104B900080000661D5E85F0F401CC5E8510F002971
:104BA000F8D12089401C80B22081E189884200D15F
:104BB0002781BDE8F0810846FFF7E8FD0600F8D040
:104BC0002046FFF743FF0546606800B9677031462D
:104BD000284600F091F931E02046FFF737FF0646FE
:104BE000606800B967700021304600F085F92189BE
:104BF000F06904EB81010861D5E85F0F401CC5E84E
:104C0000510F0029F8D12089401C80B22081E18910
:104C1000884200D1278186F80180304600F07AF979
:104C2000314611E02046FFF711FF0546606800B9E4
:104C3000677032461021284600F064F985F801803B
:104C4000284600F067F92946BDE8F041034800F026
:104C500025B9BDE8F0410320FBF76EBC50010020F0
:104C600070B50446808915460026C8B3608904EBF8
:104C70008000006908606089401C80B26081E18921
:104C8000884200D16681607802280AD014F10C04B1
:104C9000D4E85F0F401EC4E8510F0029F8D100206E
:104CA00070BD2046FFF7D2FE0546606800B9667009
:104CB0000021284600F020F92189E86904EB8101F0
:104CC00008612089401C80B22081E189884200D19E
:104CD0002681284600F01EF92846FFF7FBFDDEE797
:104CE000FFE73DB10A48626801682AB1204600F03A
:104CF000D5F807E0012070BD61600068C0E901647B
:104D00000120607008212846FFF76CFDF2E70000E3
:104D100088000020411C13D00B4A4FF6FE719042D0
:104D20000CD800EB4002C2EBC0120848036803EB4A
:104D3000C202521EB2FBF3F0884200D90846704707
:104D40004FF6FF707047000000093D0084570008CF
:104D500070B51A4801210068417000F0BBF8184D89
:104D60006C7816E005EBC40148680278E2B1012ACC
:104D70001FD000F001F9E878641C844200D10024BF
:104D80000F48801CD0E84F1F491EC0E8421F002A70
:104D9000F8D1A8780028E5D16C700A48FFF756FED4
:104DA000BDE8704000F048B9896889B2FFF7B4FDEA
:104DB000E1E78968FFF7D6FEDDE700008800002004
:104DC000901A0010500100200548017811B101210E
:104DD0004170704703494FF08050086070470000F1
:104DE0009000002004ED00E0F0B4144B9C1CDD7832
:104DF0004FEA030CD4E84F2FAA4202D1BFF32F8F02
:104E00000EE0521CC4E8462F002EF3D1DCE84F2FF1
:104E1000541CAC4200D10024CCE8464F002EF5D102
:104E2000DC78944205D903EBC202C2E90101F0BC6F
:104E30007047F0BC0220FBF77FBB0000901A001007
:104E4000154A10B5D368FBB113469B8A09E000BF31
:104E5000D2F80CC0BCF1000F16D0BCF8144062466A
:104E600023448B42F4D3D468C460D0600261D0F88C
:104E70000CC0BCF1000F01D0CCF81000591A81828F
:104E8000908A401A908210BD0024C460D060C91A74
:104E900002619182848210BD6801002010B5027801
:104EA0000023022A03D0012A01D0032A00D10123C2
:104EB00091F802C000E01046426812B1947864454F
:104EC000F9D24A6041601BB102B19160886010BDA7
:104ED0000020FBE703494A68426000228260486084
:104EE000704700005001002090F82010406A09B17E
:104EF000603070472030704710B50C46FFF7F4FF64
:104F0000046010BD70B50C461546FFF7EDFFC0E913
:104F1000004570BD10B5016900290ED0C268CA6095
:104F2000C36800223BB18B8A848A23448B82C36886
:104F30001961C26000E08A82026110BD816839B1E6
:104F400042684A604168002901D0806888607047E3
:104F5000054906E04A68824202D1406848607047CD
:104F600011460029F6D1704750010020022202703C
:104F7000002242604180704710B5416881B1FFF75F
:104F800065FD0446FFF7C6FF01206070014620461C
:104F9000FFF7B2FF2146BDE810400348FFF77EBF90
:104FA0004188491C418010BD5001002010B5416866
:104FB00061B1FFF74BFD04460121FFF79DFF20463D
:104FC000FFF7A8FF2046FFF785FC02E04188491C57
:104FD0004180002010BD000010B50C46418819B179
:104FE000491E4180002010BD34B1094A4368116850
:104FF00023B1FFF753FF06E0012010BD41601168A7
:105000000023C1E9013007212046FFF7EBFBF3E75E
:105010008800002006480068D0E90910814203D3C7
:1050200000680449884202D00120FBF785BA704726
:1050300088000020A52E5AE20749022248604270EB
:10504000064A1278002A05D006C98A4202D0C078E2
:10505000FFF72ABA70470000880000209600002061
:105060002DE9F04104460D469046FFF7F5F9002082
:1050700006463849384B02E041F82060401C1A8847
:105080009042F9D33548302201883548FEF714FEA6
:105090003448006880B240F0004233480168334829
:1050A000FEF70AFE32480822018832480068FEF7FF
:1050B00003FE314FFF20314AF8707E8400213846CC
:1050C000FFF7DCFC2E480421017046602D4801707A
:1050D000C66006618682786A2030FBF763F82A484A
:1050E0002B490760022078702848067046700978BE
:1050F000C170284801684FF0E020416186610721B6
:10510000016125480168254A114301600068224970
:1051100000F07F40C0431439B0FA80F00968C0F154
:105120000800C1F30221814200DB481C1A49091F13
:105130000B686FF08072824063F317020A60FFF71A
:10514000CBFC424629462046BDE8F041002300F052
:105150008BB80000141B0010705700088C57000813
:1051600000000010745700089057000860010010FC
:10517000B457000818000020200100203505000861
:10518000500100206801002088000020901A0010C3
:10519000985700087C57000820ED00E00000FFFF52
:1051A0000B4810B5006801214170FFF793FEFFF72F
:1051B00035FB08490888401C0880FFF753FB00F0C6
:1051C000ADFA0548FFF742FCBDE81040FFF734BFD9
:1051D000880000209400002050010020002805D005
:1051E000810702D10178002900D00020704700001B
:1051F00030B50D4C0023226808E000BFB2F808C0AB
:105200008C4505D813461268A1EB0C01002AF5D194
:1052100089B20260018112B11589691A11810BB13D
:10522000186030BD206030BD840000200D4B00228E
:10523000196803E0814204D00A4609680029F9D1BF
:1052400004E019B1016822B1116003E04FF0FF30B2
:1052500070471960016819B10A89008910440881F2
:1052600000207047840000202DE9F041804616465A
:105270001F460D4611F0FF0F00D14D1C1648FFF7D9
:1052800085FA040026D0280AA6626084E9B2424664
:105290002046E761FFF7F2FB01251048104905E0C1
:1052A00000EB850252F8042C22B16D1C0A8895424D
:1052B000F6D9002500EB850040F8044C0948E5705C
:1052C000007818B101212046FFF7DEF82046FFF7ED
:1052D00001FB2846BDE8F08100000010141B0010FF
:1052E00070570008960000202DE9F041244C234F10
:1052F000244B22680026D17808B1814218D103EBF3
:105300008100567040F8046C1F48916AFFF77AFBE1
:1053100020688662397811B10021FFF7B5F81B4883
:105320002168FFF76FFB00202660FFF7D3FA1FE02C
:105330001749098888421ED803EB800555F8044CAC
:10534000CCB12046FFF7FAFD2046FFF7E3FD45F814
:10535000046C0D48A16AFFF755FBA662387818B1B6
:1053600000212046FFF790F821460848FFF74AFB46
:105370000020BDE8F081FF20FBE700009600002040
:1053800088000020141B00106001001000000010B5
:105390007057000802480068002800D0C0787047A5
:1053A0008800002070B504000D4608D0206830B198
:1053B000B4F9040010F1030F01DB032801DD86209E
:1053C00070BD244E306840B1204600F0FBF8A0B11B
:1053D00000F030F900F03CF937E01F4840070CD1ED
:1053E0001E4801681C48FFF769FB30B9E16831B11C
:1053F0001948FFF7D9F9020002D1852070BD0022BB
:10540000B4F90400E168001D40EA01212068FFF7BB
:1054100027FE7068D8B1C078114901EB800050F8C0
:10542000040C3060416A0D62406A0E4941630021FC
:105430000D4800F021F80D49086000210C4800F0EB
:10544000C1F80C49086000203060002070BDFF20CA
:1054500070BD000088000020301400109457000830
:10546000141B0010F5460008AC570008200000206F
:105470009C5700081C00002010B5040005D02168CE
:1054800019B1606808B102780AB1002010BD890026
:10549000103189B2FFF758FB606810BD3EB50400BB
:1054A0000D464FF0800012D0217801290FD12846F7
:1054B000FFF730FC82B201A92046FFF7D1FB01289B
:1054C00001D0102003E00DB1402000E00020DDE914
:1054D000011203B030BD10B5002807D0046824B114
:1054E000207810B9481E082801D3002010BD89B2C9
:1054F0002046FFF73BFD204610BD10B5FFF7BAFA76
:1055000010B10178022901D0802010BDFFF74EFDB7
:10551000002010BD70B50D46FFF7ACFA04004FF047
:10552000FF3102D02078022801D0084670BD2846FD
:10553000FFF7F0FB81B22046FFF74EFD012802D0B5
:105540006088401C70BD002070BD70B50C46FFF730
:1055500045FE4FF0004108B1220C01D0084670BD55
:10556000058BC178A0B2FFF7FFF9284670BD000097
:1055700070B504460D46000C01D086201EE008469A
:105580002CB1FFF7C7FB81B20122A0B205E0FFF703
:10559000C1FB81B200224FF6FF70FFF713FA022819
:1055A00002D04DB1402008E008200CB1214605E0B2
:1055B00003490968498B01E000200021324670BD93
:1055C0008800002070B504000E462BD0206848B338
:1055D000B4F9040010F1030F24DB032822DCE16896
:1055E00029B11148FFF7E0F8050015D000E00025CB
:1055F000B4F90400E168001D40EA012133462A465F
:105600002068FFF731FE40B1084901EB80000849EE
:1056100050F8040C426A516370BD1DB1294602481E
:10562000FFF700FA002070BD30140010141B0010AA
:10563000F546000810B5FFF7ADFE002804D0034979
:1056400001EB800050F8040C10BD0000141B00108A
:1056500070B5FFF7C3FD040003D0608C18B1A56AD4
:1056600002E0802070BD0025E078FFF73DFEFF28B6
:1056700006D01DB10348A16AFFF7D4F9002070BD20
:10568000812070BD3014001010B5FFF7F3F920B180
:1056900001690A68C168104610BD0020014610BDAE
:1056A00010B503000CD0186850B15868002808D015
:1056B00009B1012904D1064C24680CB104790CB15C
:1056C000002010BD012404714171C0E9032310BD05
:1056D0001C00002070B50D46FFF7CCF904000AD07D
:1056E0002846FFF717FB050007D0207901280CD0CA
:1056F000022808D103E0802070BD862070BD2046BE
:10570000FFF794FD20B1812070BD022020716581DA
:1057100029462046FFF76CFD002070BD2DE9F041C1
:10572000114E3468002C18D02089104F401E208163
:105730004FF001080EE02546246834600022294617
:105740003868FEF7C9FE6879012808D085F804801A
:10575000002C02D020890028EDD0BDE8F0816989B5
:105760002846FFF745FDF3E78400002020000020D5
:105770000700000020030201050001003F90020025
:1057800001000000E8030000000000005C010000D0
:10579000D012000060060000100000006147000801
:1057A00002000000010000002003000004000000CF
:1057B000301B001000000000510500080000000030
:1057C0000100000020030000630F0008000000003B
:1057D0008B130008000000004F4F4F4F4F4F4F4FAB
:1057E0004F4F4F4F4F4F4F4F4F4F4F4F4F4F4F4FC9
:1057F0004F4F4F4F4F4F4F4F4F4F4F4F4F4F4F4FB9
:105800004F4F4F4F4F4F4F4F4F4F4F4F4F4F4F4FA8
:105810004F4F4F4F4F4F4F4F4F4F4F4F4F0A00007B
:1058200044000020680000204FBB610567ACDD3FED
:10583000182D4454FB21E93F9BF681D20B73EF3FB7
:10584000182D4454FB21F93FE2652F227F2B7A3C2F
:10585000075C143326A6813CBDCBF07A8807703CE8
:10586000075C143326A6913CC4EB98999999C9BF5B
:10587000711623FEC671BCBF6D9A74AFF2B0B3BF90
:105880009AFDDE522DDEADBF2F6C6A2C44B4A2BF50
:105890000D5555555555D53FFF8300922449C23FBC
:1058A0006E204CC5CD45B73F513DD0A0660DB13FF0
:1058B000EB0D76244B7BA93F11DA22E33AAD903F02
:1058C0000000000000000000F85800080000002060
:1058D000A4000000303B0008F85800080000001049
:1058E000501B0000403B00089C590008A400002009
:1058F000DC040000403B0008007A030A00000000BE
:10590000000000000102030406070809000000006F
:105910000000000000000000000000000000000087
:105920000000000000000000001000000001000066
:105930000000000000000000000000000000000067
:105940000000000000000000E9000000000000006E
:105950000000000000000000000000000000000047
:105960000000000000000000000000000000000037
:1059700001020304010203040607080900000000F5
:105980000000000000000000000000000000000017
:0C5990000000000000000000000000000B
:040000050800018965
:00000001FF
